:10019A0053657269616C20506F727420496E69747C
:0801AA0069616C697A6564006B
:0601E90001450001460083
:10000300E4F547F548F580F590F5A0120182120159
:0C001300687BFF7A01799A1200F880FEE9
:1001C700E4FDFCD3ED9FEC9E50070DBD00010C80B4
:0101D700F235
:0101D8002204
:100168007598504387805389CF438920758DFFE464
:0A017800F58BD28ED2AC53A8902272
:10018200E4F589F5A8C28CC28D43890143A8827522
:080192008CF8758ACDD28C2295
:0600F8008B498A4A894B86
:1000FE001201B28E4E8F4FE4F54CF54DC3E54D9582
:10010E004FE54C954E501FAB49AA4AA94B854D82DF
:10011E00854C831200B2F545FF1201D9054DE54D10
:06012E0070DA054C80D6DA
:0101340022A8
:0801D9008F993099FDC29922B3
:0801E1003098FDC298AF99228D
:03002300020135A2
:0F013500C0E0C0D075D000C000C004C005C00736
:10014400B286309812AF99AD07AC46054674082CB8
:07015400F8A6058F99C2987F
:0D015B00D007D005D004D000D0D0D0E032C5
:03000000020026D5
:0C002600787FE4F6D8FD75814F02006D74
:1000B200BB010CE58229F582E5833AF583E0225003
:1000C20006E92582F8E622BBFE06E92582F8E2224D
:0D00D200E58229F582E5833AF583E4932267
:1001B200E4FFFE1200DF600C0FEF70010E09E97020
:0501C200F20A80EF22AB
:10003200020003E493A3F8E493A34003F68001F2E1
:1000420008DFF48029E493A3F85407240CC8C333CF
:10005200C4540F4420C8834004F456800146F6DF9E
:10006200E4800B01020408102040809001E9E47E44
:10007200019360BCA3FF543F30E509541FFEE49393
:10008200A360010ECF54C025E060A840B8E493A35A
:10009200FAE493A3F8E493A3C8C582C8CAC583CA85
:1000A200F0A3C8C582C8CAC583CADFE9DEE780BE3D
:0101EF00000F
:1000DF00BB010689828A83E0225002E722BBFE021F
:0900EF00E32289828A83E4932252
:00000001FF
