:1C007E007581637F0078207A00BA00028005760008DAFB784D7A08BA0002800560
:1C009A00760008DAFB78007A00BA00028005760008DAFB902EE07821794EE84942
:1C00B600600AE4F0A318B8FFF51980F29044D178557A0FBA00028007E493A3F6B0
:1C00D20008DAF990000078007A00BA00028007E493A3F608DAF99044D078207AD1
:1C00EE0001BA0002801C7B0865E0BA00028006F9E493A31A49DB028004C3138066
:1C010A00EDF608BA00E47B007A0090000079007800EB4A601CE493A3AC82AD83B1
:1C01260088828983F0A3A882A9838C828D831ABAFFE31B80E0755080755164758B
:100142005280755364754D7F754E7F1223FB80FE7E
:0300000002007E7D
:0101AA000351
:0101AB000053
:0101AC000052
:0101AD000051
:0101AE000050
:0101AF00004F
:0101B000004E
:0101B100004D
:0101B200004C
:0101B300004B
:0101B400004A
:0101B5000049
:0101B6000048
:0101B7000047
:0101B8000046
:0101B9000045
:0101BA000044
:0101BB000043
:0101BC000042
:0101BD000041
:0101BE000040
:0101BF00003F
:0101C000003E
:0101C100003D
:0101C200003C
:0101C300003B
:0101C400003A
:0101C5000039
:0101C6000038
:0101C7000037
:0101C8000036
:0101C9000035
:0101CA000034
:0101CB000033
:0101CC000032
:0101CD00032E
:0101CE00FF31
:0101CF00E748
:0101D000FF2F
:0101D100E746
:0101D200FF2D
:0101D300E744
:0101D400002A
:0101D5000029
:0101D6000028
:0101D7000027
:0101D8000026
:0101D9000025
:0101DA000024
:0101DB000023
:0101DC000022
:0101DD000021
:0101DE000020
:0101DF00001F
:0101E000001E
:0101E100001D
:0101E200001C
:0101E300001B
:0101E400001A
:0101E5000019
:0101E6000018
:0101E7000017
:0101E8000016
:0101E9000015
:0101EA000014
:0101EB000013
:0101EC000012
:0101ED000011
:0101EE000010
:0101EF00000F
:0101F0000905
:0101F10012FB
:0101F200000C
:0101F3001FEC
:0101F400000A
:0101F5000FFA
:0101F6000008
:0101F7000601
:0101F8000006
:0101F9000005
:0101FA000004
:0101FB0012F1
:0101FC000002
:0101FD001FE2
:0101FE000000
:0101FF000FF0
:0102000000FD
:0102010006F6
:0102020000FB
:0102030000FA
:0102040000F9
:0102050000F8
:0102060000F7
:0102070000F6
:0102080000F5
:0102090000F4
:01020A0000F3
:01020B0000F2
:01020C0000F1
:01020D0000F0
:01020E0000EF
:01020F0000EE
:0102100000ED
:0102110000EC
:0102120000EB
:010213000CDE
:010214006089
:010215000CDC
:010216006087
:01021700CC1A
:010218006085
:01021900FEE6
:01021A00E003
:01021B003FA3
:01021C00F8E9
:01021D000FD1
:01021E007867
:01021F000CD2
:01022000607D
:01022100CC10
:01022200607B
:01022300FEDC
:01022400E0F9
:010225003F99
:01022600F8DF
:010227000FC7
:01022800785D
:010229000CC8
:01022A006073
:01022B000CC6
:01022C0000D1
:01022D0000D0
:01022E0000CF
:01022F0000CE
:0102300000CD
:0102310000CC
:0102320000CB
:0102330000CA
:0102340000C9
:0102350000C8
:0102360008BF
:01023700784E
:01023800388D
:01023900FCC8
:01023A00784B
:01023B00FEC4
:01023C00F9C8
:01023D00E7D9
:01023E00C3FC
:01023F00C7F7
:01024000C7F6
:01024100BEFE
:01024200FFBC
:010243003C7E
:010244007F3A
:010245003880
:010246003E79
:0102470000B6
:0102480000B5
:0102490000B4
:01024A0000B3
:01024B0000B2
:01024C0000B1
:01024D0000B0
:01024E0000AF
:01024F0000AE
:0102500000AD
:0102510000AC
:0102520000AB
:0102530000AA
:0102540000A9
:0102550000A8
:0102560000A7
:0102570000A6
:0102580000A5
:010259000A9A
:01025A0000A3
:01025B00C0E2
:01025C0000A1
:01025D00F0B0
:01025E00049B
:01025F007C22
:010260000E8F
:010261001F7D
:01026200C4D7
:010263000793
:01026400F0A9
:010265001187
:010266007C1B
:01026700385E
:010268001F76
:010269001084
:01026A00078C
:01026B000092
:01026C000190
:01026D000090
:01026E00008F
:01026F00008E
:01027000008D
:01027100008C
:01027200008B
:01027300008A
:010274000089
:010275000088
:010276000087
:010277000086
:010278000085
:010279000084
:01027A000083
:01027B000082
:01027C000A77
:01027D003C44
:01027E003C43
:01027F007E00
:010280007EFF
:01028100C3B9
:01028200C3B8
:0102830083F7
:01028400C1B8
:0102850083F5
:01028600C3B4
:01028700C3B3
:01028800C6AF
:010289007EF6
:01028A006C07
:01028B003C36
:01028C003839
:01028D000070
:01028E003837
:01028F00006E
:010290006C01
:01029100006C
:01029200006B
:01029300006A
:010294000069
:010295000068
:010296000067
:010297000066
:010298000065
:010299000064
:01029A000063
:01029B000062
:01029C000061
:01029D000060
:01029E00005F
:01029F00045A
:0102A000124B
:0102A100005C
:0102A2001F3C
:0102A300005A
:0102A4000F4A
:0102A5000058
:0102A6000651
:0102A7000056
:0102A8000055
:0102A9000054
:0102AA000053
:0102AB000052
:0102AC000051
:0102AD000050
:0102AE00004F
:0102AF00004E
:0102B000004D
:0102B100004C
:0102B200004B
:0102B300004A
:0102B4000049
:0102B5000048
:0102B6000047
:0102B7000046
:0102B8000045
:0102B9000044
:0102BA000043
:0102BB000042
:0102BC000041
:0102BD000040
:0102BE00003F
:0102BF00003E
:0102C000003D
:0102C100003C
:0102C2000536
:0102C300F04A
:0102C4000F2A
:0102C500FC3C
:0102C6003FF8
:0102C7000E28
:0102C80070C5
:0102C9000331
:0102CA00C073
:0102CB000131
:0102CC0080B1
:0102CD000030
:0102CE00002F
:0102CF00002E
:0102D000002D
:0102D100002C
:0102D200002B
:0102D300002A
:0102D4000029
:0102D5000028
:0102D6000027
:0102D7000026
:0102D8000025
:0102D9000024
:0102DA000023
:0102DB000022
:0102DC000021
:0102DD000020
:0102DE00001F
:0102DF00001E
:0102E000001D
:0102E100001C
:0102E200001B
:0102E300001A
:0102E4000019
:0102E5000513
:0102E6000116
:0102E7008096
:0102E8000312
:0102E900C054
:0102EA000E05
:0102EB0070A2
:0102EC00FC15
:0102ED003FD1
:0102EE00F01F
:0102EF000FFF
:0102F000000D
:0102F100000C
:0102F200000B
:0102F300000A
:0102F4000009
:0102F5000008
:0102F6000007
:0102F7000006
:0102F8000005
:0102F9000004
:0102FA000003
:0102FB000002
:0102FC000001
:0102FD000000
:0102FE0000FF
:0102FF0000FE
:0103000000FC
:0103010000FB
:0103020000FA
:0103030000F9
:0103040000F8
:0103050000F7
:0103060000F6
:0103070000F5
:0103080011E3
:0103090040B3
:01030A0000F2
:01030B0040B1
:01030C0000F0
:01030D00C02F
:01030E00806E
:01030F00C02D
:01031000E00C
:01031100C02B
:010312007971
:01031300C029
:010314003FA9
:01031500F0F7
:010316003FA7
:01031700FCE9
:010318001FC5
:01031900FFE4
:01031A001FC3
:01031B00FCE5
:01031C003FA1
:01031D00F0EF
:01031E003F9F
:01031F00C01D
:010320007963
:01032100C01B
:01032200E1F9
:01032300C019
:010324008058
:01032500C017
:0103260000D6
:010327004095
:0103280000D4
:010329004093
:01032A0000D2
:01032B000AC7
:01032C0000D0
:01032D0006C9
:01032E0000CE
:01032F0006C7
:0103300000CC
:0103310006C5
:0103320000CA
:0103330006C3
:01033400E0E8
:010335007F48
:01033600E0E6
:010337007F46
:0103380000C4
:0103390006BD
:01033A0000C2
:01033B0006BB
:01033C0000C0
:01033D0006B9
:01033E0000BE
:01033F0006B7
:0103400000BC
:0103410000BB
:0103420000BA
:0103430000B9
:0103440000B8
:0103450000B7
:0103460000B6
:0103470000B5
:0103480000B4
:0103490000B3
:01034A0000B2
:01034B0000B1
:01034C0000B0
:01034D0000AF
:01034E0004AA
:01034F0000AD
:01035000901C
:0103510000AB
:01035200F8B2
:0103530000A9
:010354007830
:0103550000A7
:010356003076
:0103570000A5
:0103580000A4
:0103590000A3
:01035A0000A2
:01035B0000A1
:01035C0000A0
:01035D00009F
:01035E00009E
:01035F00009D
:01036000009C
:01036100009B
:01036200009A
:010363000099
:010364000098
:010365000097
:010366000096
:010367000095
:010368000094
:010369000093
:01036A000092
:01036B000091
:01036C000090
:01036D00008F
:01036E00008E
:01036F00008D
:01037000008C
:010371000883
:01037200008A
:010373000386
:010374000088
:010375000384
:010376000086
:010377000382
:010378000084
:010379000380
:01037A000082
:01037B00037E
:01037C000080
:01037D00037C
:01037E00007E
:01037F00037A
:01038000007C
:010381000378
:01038200007A
:010383000079
:010384000078
:010385000077
:010386000076
:010387000075
:010388000074
:010389000073
:01038A000072
:01038B000071
:01038C000070
:01038D00006F
:01038E00006E
:01038F00006D
:01039000006C
:01039100006B
:01039200006A
:010393000069
:010394000464
:010395000067
:010396006006
:010397000065
:01039800F074
:010399000063
:01039A00F072
:01039B000061
:01039C006000
:01039D00005F
:01039E00005E
:01039F00005D
:0103A000005C
:0103A100005B
:0103A200005A
:0103A3000059
:0103A4000058
:0103A5000057
:0103A6000056
:0103A7000055
:0103A8000054
:0103A9000053
:0103AA000052
:0103AB000051
:0103AC000050
:0103AD00004F
:0103AE00004E
:0103AF00004D
:0103B000004C
:0103B100004B
:0103B200004A
:0103B3000049
:0103B4000048
:0103B5000047
:0103B6000046
:0103B7000A3B
:0103B8000044
:0103B900C083
:0103BA000042
:0103BB00F051
:0103BC000040
:0103BD007CC3
:0103BE00003E
:0103BF001F1E
:0103C000C07C
:0103C1000734
:0103C200F04A
:0103C3000138
:0103C4007CBC
:0103C5000037
:0103C6001F17
:0103C7000035
:0103C800072D
:0103C9000033
:0103CA000131
:0103CB000031
:0103CC000030
:0103CD00002F
:0103CE00002E
:0103CF00002D
:0103D000002C
:0103D100002B
:0103D200002A
:0103D3000029
:0103D4000028
:0103D5000027
:0103D6000026
:0103D7000025
:0103D8000024
:0103D9000023
:0103DA000A18
:0103DB00F829
:0103DC001F01
:0103DD00FC23
:0103DE003FDF
:0103DF00FE1F
:0103E0007F9D
:0103E1000F0C
:0103E200F02A
:0103E3000712
:0103E400E038
:0103E5000710
:0103E600E036
:0103E7000F06
:0103E800F024
:0103E900FE15
:0103EA007F93
:0103EB00FC15
:0103EC003FD1
:0103ED00F817
:0103EE001FEF
:0103EF00000D
:0103F000000C
:0103F100000B
:0103F200000A
:0103F3000009
:0103F4000008
:0103F5000007
:0103F6000006
:0103F7000005
:0103F8000004
:0103F9000003
:0103FA000002
:0103FB000001
:0103FC000000
:0103FD0007F8
:0103FE001CE2
:0103FF00E01D
:010400000EED
:01040100E01A
:01040200FFFA
:01040300FFF9
:01040400FFF8
:01040500FFF7
:01040600FFF6
:01040700FFF5
:0104080000F3
:01040900E012
:01040A0000F1
:01040B00E010
:01040C0000EF
:01040D0000EE
:01040E0000ED
:01040F0000EC
:0104100000EB
:0104110000EA
:0104120000E9
:0104130000E8
:0104140000E7
:0104150000E6
:0104160000E5
:0104170000E4
:0104180000E3
:0104190000E2
:01041A0000E1
:01041B0000E0
:01041C0000DF
:01041D0000DE
:01041E0000DD
:01041F0000DC
:0104200009D2
:010421003C9E
:01042200F8E1
:010423003E9A
:01042400FCDB
:010425003E98
:01042600FED7
:0104270007CD
:01042800EFE4
:01042900874B
:01042A00E7EA
:01042B00C709
:01042C00E3EC
:01042D00FED0
:01042E00E1EC
:01042F00FECE
:01043000E0EB
:010431007C4E
:01043200E0E9
:0104330000C8
:0104340000C7
:0104350000C6
:0104360000C5
:0104370000C4
:0104380000C3
:0104390000C2
:01043A0000C1
:01043B0000C0
:01043C0000BF
:01043D0000BE
:01043E0000BD
:01043F0000BC
:0104400000BB
:0104410000BA
:0104420000B9
:0104430009AF
:0104440007B0
:01044500387E
:0104460007AE
:01044700783C
:01044800872C
:01044900F9B9
:01044A00C7EA
:01044B00E1CF
:01044C00E7C8
:01044D00E1CD
:01044E00F7B6
:01044F00E3C9
:01045000BFEC
:01045100FFAB
:010452001F8A
:010453007F29
:010454000F98
:010455003E68
:0104560000A5
:0104570000A4
:0104580000A3
:0104590000A2
:01045A0000A1
:01045B0000A0
:01045C00009F
:01045D00009E
:01045E00009D
:01045F00009C
:01046000009B
:01046100009A
:010462000099
:010463000098
:010464000097
:010465000096
:010466000B8A
:01046700C0D4
:010468001F74
:01046900E0B2
:01046A001F72
:01046B00F0A0
:01046C001F70
:01046D003856
:01046E001C71
:01046F001C70
:010470001C6F
:010471000E7C
:010472001C6D
:01047300FF89
:01047400FF88
:01047500FF87
:01047600FF86
:01047700FF85
:01047800FF84
:010479000082
:01047A001C65
:01047B000080
:01047C001C63
:01047D00007E
:01047E00007D
:01047F00007C
:01048000007B
:01048100007A
:010482000079
:010483000078
:010484000077
:010485000076
:010486000075
:010487000074
:010488000073
:010489000969
:01048A00FF72
:01048B003937
:01048C00FF70
:01048D0079F5
:01048E00FF6E
:01048F00F973
:01049000C7A4
:01049100E189
:01049200C7A2
:01049300E187
:01049400C7A0
:01049500E185
:01049600C79E
:01049700FF65
:0104980087DC
:010499007FE3
:01049A00075A
:01049B003F21
:01049C00005F
:01049D00005E
:01049E00005D
:01049F00005C
:0104A000005B
:0104A100005A
:0104A2000059
:0104A3000058
:0104A4000057
:0104A5000056
:0104A6000055
:0104A7000054
:0104A8000053
:0104A9000052
:0104AA000051
:0104AB000050
:0104AC000946
:0104AD00FC52
:0104AE003F0E
:0104AF00FE4E
:0104B0007FCC
:0104B100FF4B
:0104B200FF4A
:0104B30087C1
:0104B400E364
:0104B50087BF
:0104B600E362
:0104B70087BD
:0104B800E360
:0104B9008FB3
:0104BA00FF42
:0104BB000E32
:0104BC007FC0
:0104BD000C32
:0104BE003EFF
:0104BF00003C
:0104C000003B
:0104C100003A
:0104C2000039
:0104C3000038
:0104C4000037
:0104C5000036
:0104C6000035
:0104C7000034
:0104C8000033
:0104C9000032
:0104CA000031
:0104CB000030
:0104CC00002F
:0104CD00002E
:0104CE00002D
:0104CF000923
:0104D0000724
:0104D100002A
:0104D2000722
:0104D3000028
:0104D4000720
:0104D500F82E
:0104D600071E
:0104D700FE26
:0104D800879C
:0104D900FF23
:0104DA00E73A
:0104DB00031D
:0104DC00FF20
:0104DD00001E
:0104DE003FDE
:0104DF00001C
:0104E0001FFC
:0104E100001A
:0104E2000019
:0104E3000018
:0104E4000017
:0104E5000016
:0104E6000015
:0104E7000014
:0104E8000013
:0104E9000012
:0104EA000011
:0104EB000010
:0104EC00000F
:0104ED00000E
:0104EE00000D
:0104EF00000C
:0104F000000B
:0104F100000A
:0104F2000900
:0104F3007C8C
:0104F4003EC9
:0104F500FE08
:0104F6007F86
:0104F700FF05
:0104F800FF04
:0104F900C73B
:0104FA00E120
:0104FB00C739
:0104FC00E11E
:0104FD00C737
:0104FE00E11C
:0104FF00FFFD
:01050000FFFB
:01050100FEFB
:010502007F79
:010503007C7B
:010504003EB8
:0105050000F5
:0105060000F4
:0105070000F3
:0105080000F2
:0105090000F1
:01050A0000F0
:01050B0000EF
:01050C0000EE
:01050D0000ED
:01050E0000EC
:01050F0000EB
:0105100000EA
:0105110000E9
:0105120000E8
:0105130000E7
:0105140000E6
:0105150009DC
:010516007C68
:0105170030B3
:01051800FEE4
:010519007071
:01051A00FFE1
:01051B00F1EE
:01051C00C717
:01051D00E1FC
:01051E00C715
:01051F00E1FA
:01052000C713
:01052100E1F8
:01052200FFD9
:01052300FFD8
:01052400FED8
:010525007F56
:01052600FCD8
:010527003F94
:0105280000D2
:0105290000D1
:01052A0000D0
:01052B0000CF
:01052C0000CE
:01052D0000CD
:01052E0000CC
:01052F0000CB
:0105300000CA
:0105310000C9
:0105320000C8
:0105330000C7
:0105340000C6
:0105350000C5
:0105360000C4
:0105370000C3
:0105380004BE
:01053900C001
:01053A006060
:01053B00E0DF
:01053C00F1CD
:01053D00E0DD
:01053E00F1CB
:01053F00C0FB
:01054000605A
:0105410000B9
:0105420000B8
:0105430000B7
:0105440000B6
:0105450000B5
:0105460000B4
:0105470000B3
:0105480000B2
:0105490000B1
:01054A0000B0
:01054B0000AF
:01054C0000AE
:01054D0000AD
:01054E0000AC
:01054F0000AB
:0105500000AA
:0105510000A9
:0105520000A8
:0105530000A7
:0105540000A6
:0105550000A5
:0105560000A4
:0105570000A3
:0105580000A2
:0105590000A1
:01055A0000A0
:01055B00049B
:01055C00603E
:01055D00900D
:01055E00F0AC
:01055F00F8A3
:01056000F0AA
:010561007821
:010562006038
:010563003067
:010564000096
:010565000095
:010566000094
:010567000093
:010568000092
:010569000091
:01056A000090
:01056B00008F
:01056C00008E
:01056D00008D
:01056E00008C
:01056F00008B
:01057000008A
:010571000089
:010572000088
:010573000087
:010574000086
:010575000085
:010576000084
:010577000083
:010578000082
:010579000081
:01057A000080
:01057B00007F
:01057C00007E
:01057D00007D
:01057E000874
:01057F0080FB
:010580000377
:01058100C0B9
:010582000771
:01058300C0B7
:010584000670
:01058500C0B5
:01058600066E
:010587006013
:010588000C66
:010589006011
:01058A000C64
:01058B00600F
:01058C000C62
:01058D00303D
:01058E001854
:01058F00006B
:01059000006A
:010591000069
:010592000068
:010593000067
:010594000066
:010595000065
:010596000064
:010597000063
:010598000062
:010599000061
:01059A000060
:01059B00005F
:01059C00005E
:01059D00005D
:01059E00005C
:01059F00005B
:0105A000005A
:0105A1000851
:0105A20080D8
:0105A3000D4A
:0105A40080D6
:0105A5000D48
:0105A60080D4
:0105A7000D46
:0105A80080D2
:0105A9000D44
:0105AA0080D0
:0105AB000D42
:0105AC0080CE
:0105AD000D40
:0105AE0080CC
:0105AF000D3E
:0105B00080CA
:0105B1000D3C
:0105B2000048
:0105B3000047
:0105B4000046
:0105B5000045
:0105B6000044
:0105B7000043
:0105B8000042
:0105B9000041
:0105BA000040
:0105BB00003F
:0105BC00003E
:0105BD00003D
:0105BE00003C
:0105BF00003B
:0105C000003A
:0105C1000039
:0105C2000038
:0105C3000037
:0105C400082E
:0105C5003005
:0105C600181C
:0105C70060D3
:0105C8000C26
:0105C90060D1
:0105CA000C24
:0105CB0060CF
:0105CC000C22
:0105CD00C06D
:0105CE000626
:0105CF00C06B
:0105D0000624
:0105D100C069
:0105D2000721
:0105D30080A7
:0105D4000323
:0105D5000025
:0105D6000024
:0105D7000023
:0105D8000022
:0105D9000021
:0105DA000020
:0105DB00001F
:0105DC00001E
:0105DD00001D
:0105DE00001C
:0105DF00001B
:0105E000001A
:0105E1000019
:0105E2000018
:0105E3000017
:0105E4000016
:0105E5000015
:0105E6000014
:0105E700090A
:0105E8001CF6
:0105E9000011
:0105EA001EF2
:0105EB00000F
:0105EC001FEF
:0105ED00000D
:0105EE000705
:0105EF00EF1C
:0105F0008783
:0105F100EF1A
:0105F200C741
:0105F300EF18
:0105F400FF07
:0105F5000005
:0105F6007E86
:0105F7000003
:0105F8003CC6
:0105F9000001
:0105FA000000
:0105FB0000FF
:0105FC0000FE
:0105FD0000FD
:0105FE0000FC
:0105FF0000FB
:0106000000F9
:0106010000F8
:0106020000F7
:0106030000F6
:0106040000F5
:0106050000F4
:0106060000F3
:0106070000F2
:0106080000F1
:0106090000F0
:01060A000FE0
:01060B00C02E
:01060C000FDE
:01060D0030BC
:01060E0018D3
:01060F008862
:0106100027C2
:01061100C424
:010612004F98
:010613006482
:01061400588D
:0106150032B2
:010616009053
:0106170012D0
:010618009051
:0106190012CE
:01061A00904F
:01061B0012CC
:01061C008C51
:01061D00E2FA
:01061E009F3C
:01061F00F2E8
:010620009F3A
:01062100F4E4
:010622005087
:010623000CCA
:01062400686D
:0106250018BC
:0106260024AF
:01062700E0F2
:0106280023AE
:0106290000D0
:01062A0000CF
:01062B0000CE
:01062C0000CD
:01062D000AC2
:01062E00F8D3
:01062F00FFCB
:01063000FCCD
:01063100FFC9
:01063200FEC9
:01063300FFC7
:010634000FB6
:0106350007BD
:0106360007BC
:0106370007BB
:0106380007BA
:0106390007B9
:01063A000FB0
:01063B0007B7
:01063C00FEBF
:01063D00FFBD
:01063E00FCBF
:01063F00FFBB
:01064000F8C1
:01064100FFB9
:0106420000B7
:0106430000B6
:0106440000B5
:0106450000B4
:0106460000B3
:0106470000B2
:0106480000B1
:0106490000B0
:01064A0000AF
:01064B0000AE
:01064C0000AD
:01064D0000AC
:01064E0000AB
:01064F0000AA
:010650000A9F
:01065100FFA9
:01065200FFA8
:01065300FFA7
:01065400FFA6
:01065500FFA5
:01065600FFA4
:01065700871B
:01065800E3BE
:010659008719
:01065A00E3BC
:01065B008717
:01065C00E3BA
:01065D008F0D
:01065E00F3A8
:01065F00FF9B
:01066000FF9A
:01066100FE9A
:010662007F18
:010663007C1A
:010664003E57
:010665000094
:010666000093
:010667000092
:010668000091
:010669000090
:01066A00008F
:01066B00008E
:01066C00008D
:01066D00008C
:01066E00008B
:01066F00008A
:010670000089
:010671000088
:010672000087
:010673000A7C
:01067400F88D
:010675001F65
:01067600FC87
:010677003F43
:01067800FE83
:010679007F01
:01067A000F70
:01067B00F08E
:01067C000776
:01067D00E09C
:01067E000774
:01067F00E09A
:010680000772
:01068100E098
:010682001E59
:0106830078FE
:010684001C59
:01068500383C
:01068600185B
:01068700185A
:010688000071
:010689000070
:01068A00006F
:01068B00006E
:01068C00006D
:01068D00006C
:01068E00006B
:01068F00006A
:010690000069
:010691000068
:010692000067
:010693000066
:010694000065
:010695000064
:010696000A59
:01069700FF63
:01069800FF62
:01069900FF61
:01069A00FF60
:01069B00FF5F
:01069C00FF5E
:01069D000755
:01069E00E07B
:01069F000753
:0106A000E079
:0106A1000751
:0106A200E077
:0106A3000F47
:0106A400F065
:0106A500FE56
:0106A6007FD4
:0106A700FC56
:0106A8003F12
:0106A900F858
:0106AA001F30
:0106AB00004E
:0106AC00004D
:0106AD00004C
:0106AE00004B
:0106AF00004A
:0106B0000049
:0106B1000048
:0106B2000047
:0106B3000046
:0106B4000045
:0106B5000044
:0106B6000043
:0106B7000042
:0106B8000041
:0106B9000937
:0106BA00FF40
:0106BB00FF3F
:0106BC00FF3E
:0106BD00FF3D
:0106BE00FF3C
:0106BF00FF3B
:0106C000C772
:0106C100E157
:0106C200C770
:0106C300E155
:0106C400C76E
:0106C500E153
:0106C600C76C
:0106C700E151
:0106C800072A
:0106C900E050
:0106CA000728
:0106CB00E04E
:0106CC00002D
:0106CD00002C
:0106CE00002B
:0106CF00002A
:0106D0000029
:0106D1000028
:0106D2000027
:0106D3000026
:0106D4000025
:0106D5000024
:0106D6000023
:0106D7000022
:0106D8000021
:0106D9000020
:0106DA00001F
:0106DB00001E
:0106DC000914
:0106DD00FF1D
:0106DE00FF1C
:0106DF00FF1B
:0106E000FF1A
:0106E100FF19
:0106E200FF18
:0106E300878F
:0106E4000312
:0106E500878D
:0106E6000310
:0106E700878B
:0106E800030E
:0106E9008789
:0106EA00030C
:0106EB000707
:0106EC00000D
:0106ED000705
:0106EE00000B
:0106EF00000A
:0106F0000009
:0106F1000008
:0106F2000007
:0106F3000006
:0106F4000005
:0106F5000004
:0106F6000003
:0106F7000002
:0106F8000001
:0106F9000000
:0106FA0000FF
:0106FB0000FE
:0106FC0000FD
:0106FD0000FC
:0106FE0000FB
:0106FF000AF0
:01070000F800
:010701001FD8
:01070200FCFA
:010703003FB6
:01070400FEF6
:010705007F74
:010706000FE3
:01070700F001
:0107080007E9
:01070900E00F
:01070A008767
:01070B00E30A
:01070C008F5D
:01070D00F3F8
:01070E009E4C
:01070F007F6A
:010710009C4C
:010711003FA8
:01071200984E
:010713001FC6
:0107140000E4
:0107150000E3
:0107160000E2
:0107170000E1
:0107180000E0
:0107190000DF
:01071A0000DE
:01071B0000DD
:01071C0000DC
:01071D0000DB
:01071E0000DA
:01071F0000D9
:0107200000D8
:0107210000D7
:010722000ACC
:01072300FFD6
:01072400FFD5
:01072500FFD4
:01072600FFD3
:01072700FFD2
:01072800FFD1
:01072900C00F
:01072A0001CD
:01072B00C00D
:01072C0001CB
:01072D00C00B
:01072E0001C9
:01072F00C009
:0107300001C7
:01073100FFC8
:01073200FFC7
:01073300FFC6
:01073400FFC5
:01073500FFC4
:01073600FFC3
:0107370000C1
:0107380000C0
:0107390000BF
:01073A0000BE
:01073B0000BD
:01073C0000BC
:01073D0000BB
:01073E0000BA
:01073F0000B9
:0107400000B8
:0107410000B7
:0107420000B6
:0107430000B5
:0107440000B4
:0107450007AC
:0107460007AB
:01074700E0D1
:0107480007A9
:01074900E0CF
:01074A00FFAF
:01074B00FFAE
:01074C00FFAD
:01074D00FFAC
:01074E00FFAB
:01074F00FFAA
:0107500007A1
:01075100E0C7
:01075200079F
:01075300E0C5
:0107540000A4
:0107550000A3
:0107560000A2
:0107570000A1
:0107580000A0
:01075900009F
:01075A00009E
:01075B00009D
:01075C00009C
:01075D00009B
:01075E00009A
:01075F000099
:010760000098
:010761000097
:010762000096
:010763000095
:010764000094
:010765000093
:010766000092
:010767000091
:010768000A86
:01076900008F
:01076A003856
:01076B000786
:01076C007814
:01076D000784
:01076E00E0AA
:01076F000782
:01077000E0A8
:01077100FF88
:01077200FF87
:01077300FF86
:010774007F05
:01077500FF84
:010776003F43
:01077700077A
:010778000080
:010779000778
:01077A00007E
:01077B000776
:01077C00007C
:01077D00007B
:01077E00007A
:01077F000079
:010780000078
:010781000077
:010782000076
:010783000075
:010784000074
:010785000073
:010786000072
:010787000071
:010788000070
:01078900006F
:01078A00006E
:01078B000A63
:01078C00FF6D
:01078D00FF6C
:01078E00FF6B
:01078F00FF6A
:01079000FF69
:01079100FF68
:01079200C0A6
:010793000362
:01079400E084
:01079500075C
:01079600F072
:010797000F52
:0107980078E8
:010799001E41
:01079A003F1F
:01079B00FC61
:01079C001F3D
:01079D00F863
:01079E000F4B
:01079F00F069
:0107A0000058
:0107A1000057
:0107A2000056
:0107A3000055
:0107A4000054
:0107A5000053
:0107A6000052
:0107A7000051
:0107A8000050
:0107A900004F
:0107AA00004E
:0107AB00004D
:0107AC00004C
:0107AD00004B
:0107AE000941
:0107AF00FF4A
:0107B000FF49
:0107B100FF48
:0107B200FF47
:0107B300FF46
:0107B400FF45
:0107B5000043
:0107B600E062
:0107B7000041
:0107B800E060
:0107B900003F
:0107BA00E05E
:0107BB00003D
:0107BC00E05C
:0107BD00003B
:0107BE00E05A
:0107BF000039
:0107C000E058
:0107C1000037
:0107C2000036
:0107C3000035
:0107C4000034
:0107C5000033
:0107C6000032
:0107C7000031
:0107C8000030
:0107C900002F
:0107CA00002E
:0107CB00002D
:0107CC00002C
:0107CD00002B
:0107CE00002A
:0107CF000029
:0107D0000028
:0107D1000B1C
:0107D200FF27
:0107D300FF26
:0107D400FF25
:0107D500FF24
:0107D600FF23
:0107D700FF22
:0107D8000E12
:0107D900001F
:0107DA001C02
:0107DB00001D
:0107DC0038E4
:0107DD00001B
:0107DE001CFE
:0107DF000019
:0107E0000E0A
:0107E1000017
:0107E200FF17
:0107E300FF16
:0107E400FF15
:0107E500FF14
:0107E600FF13
:0107E700FF12
:0107E8000010
:0107E900000F
:0107EA00000E
:0107EB00000D
:0107EC00000C
:0107ED00000B
:0107EE00000A
:0107EF000009
:0107F0000008
:0107F1000007
:0107F2000006
:0107F3000005
:0107F4000BF9
:0107F500FF04
:0107F600FF03
:0107F700FF02
:0107F800FF01
:0107F900FF00
:0107FA00FFFF
:0107FB007F7E
:0107FC0000FC
:0107FD00FCFF
:0107FE0001F9
:0107FF00F009
:0108000007F0
:01080100C036
:010802001FD6
:0108030000F4
:010804007F74
:01080500FFF3
:01080600FFF2
:01080700FFF1
:01080800FFF0
:01080900FFEF
:01080A00FFEE
:01080B0000EC
:01080C0000EB
:01080D0000EA
:01080E0000E9
:01080F0000E8
:0108100000E7
:0108110000E6
:0108120000E5
:0108130000E4
:0108140000E3
:0108150000E2
:0108160000E1
:010817000BD5
:01081800F8E7
:010819001FBF
:01081A00FCE1
:01081B003F9D
:01081C00FEDD
:01081D007F5B
:01081E000FCA
:01081F00F0E8
:0108200007D0
:01082100E0F6
:0108220007CE
:01082300E0F4
:0108240007CC
:01082500E0F2
:010826000FC2
:01082700F0E0
:01082800FED1
:010829007F4F
:01082A00FCD1
:01082B003F8D
:01082C00F8D3
:01082D001FAB
:01082E0000C9
:01082F0000C8
:0108300000C7
:0108310000C6
:0108320000C5
:0108330000C4
:0108340000C3
:0108350000C2
:0108360000C1
:0108370000C0
:0108380000BF
:0108390000BE
:01083A000AB3
:01083B00FFBD
:01083C00FFBC
:01083D00FFBB
:01083E00FFBA
:01083F00FFB9
:01084000FFB8
:01084100872F
:0108420003B2
:01084300872D
:0108440003B0
:01084500872B
:0108460003AE
:01084700CFE1
:0108480003AC
:01084900FEB0
:01084A0001AC
:01084B00FCB0
:01084C0000AB
:01084D007832
:01084E0000A9
:01084F0000A8
:0108500000A7
:0108510000A6
:0108520000A5
:0108530000A4
:0108540000A3
:0108550000A2
:0108560000A1
:0108570000A0
:01085800009F
:01085900009E
:01085A00009D
:01085B00009C
:01085C00009B
:01085D000A90
:01085E00F8A1
:01085F001F79
:01086000FC9B
:010861003F57
:01086200FE97
:010863007F15
:010864000F84
:01086500F0A2
:01086600078A
:01086700E6AA
:010868000788
:01086900FE90
:01086A000F7E
:01086B00FC90
:01086C00FE8D
:01086D007F0B
:01086E00FC8D
:01086F00FF89
:01087000F88F
:01087100EF97
:010872000085
:010873000084
:010874000083
:010875000082
:010876000081
:010877000080
:01087800007F
:01087900007E
:01087A00007D
:01087B00007C
:01087C00007B
:01087D00007A
:01087E000079
:01087F000078
:010880000A6D
:01088100FF77
:01088200FF76
:01088300FF75
:01088400FF74
:01088500FF73
:01088600FF72
:010887008FE1
:01088800036C
:0108890087E7
:01088A00036A
:01088B0087E5
:01088C000764
:01088D00CF9B
:01088E000F5A
:01088F00FF69
:01089000FF68
:01089100FE68
:01089200FC69
:010893007CE8
:01089400F86B
:010895000062
:010896000061
:010897000060
:01089800005F
:01089900005E
:01089A00005D
:01089B00005C
:01089C00005B
:01089D00005A
:01089E000059
:01089F000058
:0108A0000057
:0108A1000056
:0108A2000055
:0108A3000A4A
:0108A4007CD7
:0108A500381A
:0108A600FE53
:0108A70078D8
:0108A800FF50
:0108A900F955
:0108AA00E766
:0108AB00E16B
:0108AC00C784
:0108AD00E367
:0108AE00C782
:0108AF00E365
:0108B00087C0
:0108B100E75F
:0108B2009FA6
:0108B300FF45
:0108B4001E25
:0108B5007FC3
:0108B6001C25
:0108B7003E02
:0108B800003F
:0108B900003E
:0108BA00003D
:0108BB00003C
:0108BC00003B
:0108BD00003A
:0108BE000039
:0108BF000038
:0108C0000037
:0108C1000036
:0108C2000035
:0108C3000034
:0108C4000033
:0108C5000032
:0108C6000928
:0108C7000729
:0108C800002F
:0108C9000727
:0108CA00002D
:0108CB000725
:0108CC00002B
:0108CD00FF2B
:0108CE00FF2A
:0108CF00FF29
:0108D000FF28
:0108D100FF27
:0108D200FF26
:0108D300071D
:0108D4000023
:0108D500071B
:0108D6000021
:0108D7000719
:0108D800001F
:0108D900001E
:0108DA00001D
:0108DB00001C
:0108DC00001B
:0108DD00001A
:0108DE000019
:0108DF000018
:0108E0000017
:0108E1000016
:0108E2000015
:0108E3000014
:0108E4000013
:0108E5000012
:0108E6000011
:0108E7000010
:0108E800000F
:0108E9000A04
:0108EA00FF0E
:0108EB003FCD
:0108EC00FF0C
:0108ED007F8B
:0108EE00FF0A
:0108EF00FF09
:0108F0000007
:0108F100F016
:0108F2000005
:0108F300E024
:0108F4000003
:0108F500E022
:0108F6000001
:0108F700F010
:0108F800FF00
:0108F900FFFF
:0108FA00FFFE
:0108FB007F7D
:0108FC00FFFC
:0108FD003FBB
:0108FE0000F9
:0108FF0000F8
:0109000000F6
:0109010000F5
:0109020000F4
:0109030000F3
:0109040000F2
:0109050000F1
:0109060000F0
:0109070000EF
:0109080000EE
:0109090000ED
:01090A0000EC
:01090B0000EB
:01090C0009E1
:01090D00FFEA
:01090E000FD9
:01090F00FFE8
:010910001FC7
:01091100FFE6
:010912003FA5
:0109130000E3
:010914007072
:0109150000E1
:01091600E000
:0109170000DF
:01091800706E
:01091900FFDE
:01091A003F9D
:01091B00FFDC
:01091C001FBB
:01091D00FFDA
:01091E000FC9
:01091F0000D7
:0109200000D6
:0109210000D5
:0109220000D4
:0109230000D3
:0109240000D2
:0109250000D1
:0109260000D0
:0109270000CF
:0109280000CE
:0109290000CD
:01092A0000CC
:01092B0000CB
:01092C0000CA
:01092D0000C9
:01092E0000C8
:01092F000BBC
:01093000FFC7
:01093100FFC6
:01093200FFC5
:01093300FFC4
:01093400FFC3
:01093500FFC2
:0109360000C0
:01093700704F
:0109380000BE
:010939003885
:01093A0000BC
:01093B001C9F
:01093C0000BA
:01093D003881
:01093E0000B8
:01093F007047
:01094000FFB7
:01094100FFB6
:01094200FFB5
:01094300FFB4
:01094400FFB3
:01094500FFB2
:0109460000B0
:0109470000AF
:0109480000AE
:0109490000AD
:01094A0000AC
:01094B0000AB
:01094C0000AA
:01094D0000A9
:01094E0000A8
:01094F0000A7
:0109500000A6
:0109510000A5
:010952000B99
:010953001F84
:01095400F0B2
:010955003F62
:01095600F8A8
:010957007F20
:01095800FCA2
:01095900E0BD
:01095A000E8E
:01095B00C0DB
:01095C000793
:01095D008019
:01095E000395
:01095F00C0D7
:01096000078F
:01096100E0B5
:010962000E86
:010963007F14
:01096400FC96
:010965003F52
:01096600F898
:010967001F70
:01096800F09E
:01096900008D
:01096A00008C
:01096B00008B
:01096C00008A
:01096D000089
:01096E000088
:01096F000087
:010970000086
:010971000085
:010972000084
:010973000083
:010974000082
:010975000B76
:010976001F61
:01097700007F
:010978003F3F
:01097900007D
:01097A007FFD
:01097B00007B
:01097C00E09A
:01097D000079
:01097E00C0B8
:01097F00FF78
:0109800080F6
:01098100FF76
:01098200C0B4
:01098300FF74
:01098400E092
:010985000071
:010986007FF1
:01098700006F
:010988003F2F
:01098900006D
:01098A001F4D
:01098B00006B
:01098C00006A
:01098D000069
:01098E000068
:01098F000067
:010990000066
:010991000065
:010992000064
:010993000063
:010994000062
:010995000061
:010996000060
:01099700005F
:010998000A54
:010999000756
:01099A00F864
:01099B000754
:01099C00FC5E
:01099D000752
:01099E00FE5A
:01099F000750
:0109A000E76F
:0109A10087CE
:0109A200E371
:0109A300C78C
:0109A400E171
:0109A500E76A
:0109A600E070
:0109A7007FD0
:0109A800E06E
:0109A9003F0E
:0109AA00E06C
:0109AB001F2C
:0109AC00E06A
:0109AD000049
:0109AE000048
:0109AF000047
:0109B0000046
:0109B1000045
:0109B2000044
:0109B3000043
:0109B4000042
:0109B5000041
:0109B6000040
:0109B700003F
:0109B800003E
:0109B900003D
:0109BA00003C
:0109BB000635
:0109BC00FF3B
:0109BD00FF3A
:0109BE00FF39
:0109BF00FF38
:0109C000FF37
:0109C100FF36
:0109C200072D
:0109C300E053
:0109C400072B
:0109C500E051
:0109C6000729
:0109C700E04F
:0109C800002E
:0109C900002D
:0109CA00002C
:0109CB00002B
:0109CC00002A
:0109CD000029
:0109CE000028
:0109CF000027
:0109D0000026
:0109D1000025
:0109D2000024
:0109D3000023
:0109D4000022
:0109D5000021
:0109D6000020
:0109D700001F
:0109D800001E
:0109D900001D
:0109DA00001C
:0109DB00001B
:0109DC00001A
:0109DD000019
:0109DE000A0E
:0109DF000116
:0109E0000016
:0109E100070E
:0109E2000014
:0109E3001FF4
:0109E4000012
:0109E5007C95
:0109E6000010
:0109E700F01F
:0109E800010D
:0109E900C04D
:0109EA000705
:0109EB00000B
:0109EC001FEB
:0109ED000009
:0109EE007C8C
:0109EF000007
:0109F000F016
:0109F1000005
:0109F200C044
:0109F3000003
:0109F4000002
:0109F5000001
:0109F6000000
:0109F70000FF
:0109F80000FE
:0109F90000FD
:0109FA0000FC
:0109FB0000FB
:0109FC0000FA
:0109FD0000F9
:0109FE0000F8
:0109FF0000F7
:010A000000F5
:010A010006EE
:010A020007EC
:010A0300E012
:010A040007EA
:010A0500E010
:010A060007E8
:010A0700E00E
:010A0800FFEE
:010A0900FFED
:010A0A00FFEC
:010A0B00FFEB
:010A0C00FFEA
:010A0D00FFE9
:010A0E0000E7
:010A0F0000E6
:010A100000E5
:010A110000E4
:010A120000E3
:010A130000E2
:010A140000E1
:010A150000E0
:010A160000DF
:010A170000DE
:010A180000DD
:010A190000DC
:010A1A0000DB
:010A1B0000DA
:010A1C0000D9
:010A1D0000D8
:010A1E0000D7
:010A1F0000D6
:010A200000D5
:010A210000D4
:010A220000D3
:010A230000D2
:010A24000BC6
:010A25004090
:010A260000CF
:010A2700705E
:010A280000CD
:010A29007C50
:010A2A0000CB
:010A2B001FAB
:010A2C0000C9
:010A2D0007C1
:010A2E0000C7
:010A2F0001C5
:010A300000C5
:010A310007BD
:010A320000C3
:010A33001FA3
:010A340000C1
:010A35007C44
:010A360000BF
:010A3700704E
:010A380000BD
:010A3900407C
:010A3A0000BB
:010A3B0000BA
:010A3C0000B9
:010A3D0000B8
:010A3E0000B7
:010A3F0000B6
:010A400000B5
:010A410000B4
:010A420000B3
:010A430000B2
:010A440000B1
:010A450000B0
:010A460000AF
:010A47000F9F
:010A480000AD
:010A4900604C
:010A4A0000AB
:010A4B00604A
:010A4C0000A9
:010A4D006048
:010A4E0000A7
:010A4F006046
:010A500000A5
:010A51006044
:010A520000A3
:010A53006042
:010A540000A1
:010A55006040
:010A5600009F
:010A5700603E
:010A5800009D
:010A5900603C
:010A5A00009B
:010A5B00603A
:010A5C000099
:010A5D006038
:010A5E000097
:010A5F006036
:010A60000095
:010A61006034
:010A62000093
:010A63006032
:010A64000091
:010A65006030
:010A6600008F
:010A6700008E
:010A6800008D
:010A6900008C
:010A6A000487
:010A6B000684
:010A6C000089
:010A6D000F79
:010A6E000087
:010A6F001F67
:010A70000085
:010A71001272
:010A72000083
:010A73000082
:010A74000081
:010A75000080
:010A7600007F
:010A7700007E
:010A7800007D
:010A7900007C
:010A7A00007B
:010A7B00007A
:010A7C000079
:010A7D000078
:010A7E000077
:010A7F000076
:010A80000075
:010A81000074
:010A82000073
:010A83000072
:010A84000071
:010A85000070
:010A8600006F
:010A8700006E
:010A8800006D
:010A8900006C
:010A8A00006B
:010A8B00006A
:010A8C000069
:010A8D000A5E
:010A8E002047
:010A8F000660
:010A90003035
:010A91000F55
:010A920098CB
:010A93001949
:010A940098C9
:010A95001947
:010A960098C7
:010A97001945
:010A980098C5
:010A99001943
:010A9A00B8A3
:010A9B001941
:010A9C00F069
:010A9D000F49
:010A9E00E077
:010A9F001F37
:010AA0000055
:010AA1001044
:010AA2000053
:010AA3000052
:010AA4000051
:010AA5000050
:010AA600004F
:010AA700004E
:010AA800004D
:010AA900004C
:010AAA00004B
:010AAB00004A
:010AAC000049
:010AAD000048
:010AAE000047
:010AAF000046
:010AB000093C
:010AB100FF45
:010AB2001F24
:010AB300FF43
:010AB4001F22
:010AB5003010
:010AB6000C33
:010AB7001826
:010AB8001825
:010AB9001824
:010ABA001823
:010ABB001822
:010ABC001821
:010ABD003800
:010ABE001C1B
:010ABF00F046
:010AC0000F26
:010AC100E054
:010AC200072C
:010AC3000032
:010AC4000031
:010AC5000030
:010AC600002F
:010AC700002E
:010AC800002D
:010AC900002C
:010ACA00002B
:010ACB00002A
:010ACC000029
:010ACD000028
:010ACE000027
:010ACF000026
:010AD0000025
:010AD1000024
:010AD2000023
:010AD3000919
:010AD400E041
:010AD5000719
:010AD600F02F
:010AD7000F0F
:010AD80038E5
:010AD9001C00
:010ADA001803
:010ADB001802
:010ADC001801
:010ADD001800
:010ADE0018FF
:010ADF0018FE
:010AE00018FD
:010AE10018FC
:010AE20030E3
:010AE3000C06
:010AE40020F1
:010AE500040C
:010AE600000F
:010AE700000E
:010AE800000D
:010AE900000C
:010AEA00000B
:010AEB00000A
:010AEC000009
:010AED000008
:010AEE000007
:010AEF000006
:010AF0000005
:010AF1000004
:010AF2000003
:010AF3000002
:010AF4000001
:010AF5000000
:010AF60009F6
:010AF700E01E
:010AF80007F6
:010AF900F00C
:010AFA000FEC
:010AFB0038C2
:010AFC001CDD
:010AFD0018E0
:010AFE0018DF
:010AFF0018DE
:010B000018DC
:010B010018DB
:010B020018DA
:010B030030C1
:010B04000CE4
:010B0500FFF0
:010B06001FCF
:010B0700FFEE
:010B08001FCD
:010B090000EB
:010B0A0000EA
:010B0B0000E9
:010B0C0000E8
:010B0D0000E7
:010B0E0000E6
:010B0F0000E5
:010B100000E4
:010B110000E3
:010B120000E2
:010B130000E1
:010B140000E0
:010B150000DF
:010B160000DE
:010B170000DD
:010B180000DC
:010B190009D2
:010B1A00E0FA
:010B1B0007D2
:010B1C00F0E8
:010B1D000FC8
:010B1E00983E
:010B1F0019BC
:010B2000983C
:010B210019BA
:010B2200983A
:010B230019B8
:010B24009838
:010B250019B6
:010B26009836
:010B270019B4
:010B2800F0DC
:010B29000CBF
:010B2A00606A
:010B2B0004C5
:010B2C0000C8
:010B2D0000C7
:010B2E0000C6
:010B2F0000C5
:010B300000C4
:010B310000C3
:010B320000C2
:010B330000C1
:010B340000C0
:010B350000BF
:010B360000BE
:010B370000BD
:010B380000BC
:010B390000BB
:010B3A0000BA
:010B3B0000B9
:010B3C0005B3
:010B3D003087
:010B3E0000B6
:010B3F00FCB9
:010B40001F95
:010B4100FEB5
:010B42001F93
:010B4300337E
:010B440000B0
:010B4500337C
:010B460000AE
:010B470000AD
:010B480000AC
:010B490000AB
:010B4A0000AA
:010B4B0000A9
:010B4C0000A8
:010B4D0000A7
:010B4E0000A6
:010B4F0000A5
:010B500000A4
:010B510000A3
:010B520000A2
:010B530000A1
:010B540000A0
:010B5500009F
:010B5600009E
:010B5700009D
:010B5800009C
:010B5900009B
:010B5A00009A
:010B5B000099
:010B5C000098
:010B5D000097
:010B5E000096
:010B5F00098C
:010B6000E0B4
:010B61002370
:010B6200F0A2
:010B6300672A
:010B64001878
:010B6500CCC3
:010B66001876
:010B6700CCC1
:010B68001874
:010B6900CCBF
:010B6A001872
:010B6B00CCBD
:010B6C003058
:010B6D00C6C1
:010B6E00F88E
:010B6F007F06
:010B7000F88C
:010B71003F44
:010B72000082
:010B73000081
:010B74000080
:010B7500007F
:010B7600007E
:010B7700007D
:010B7800007C
:010B7900007B
:010B7A00007A
:010B7B000079
:010B7C000078
:010B7D000077
:010B7E000076
:010B7F000075
:010B80000074
:010B81000073
:010B82000969
:010B8300FF72
:010B84001F51
:010B8500FF70
:010B86001F4F
:010B8700303D
:010B8800006C
:010B89001853
:010B8A00006A
:010B8B001851
:010B8C000068
:010B8D00184F
:010B8E000066
:010B8F00382D
:010B90000064
:010B9100F073
:010B92001F43
:010B9300E081
:010B94001F41
:010B9500005F
:010B9600005E
:010B9700005D
:010B9800005C
:010B9900005B
:010B9A00005A
:010B9B000059
:010B9C000058
:010B9D000057
:010B9E000056
:010B9F000055
:010BA0000054
:010BA1000053
:010BA2000052
:010BA3000051
:010BA4000050
:010BA500024D
:010BA600F658
:010BA7001F2E
:010BA800F656
:010BA9001F2C
:010BAA00004A
:010BAB000049
:010BAC000048
:010BAD000047
:010BAE000046
:010BAF000045
:010BB0000044
:010BB1000043
:010BB2000042
:010BB3000041
:010BB4000040
:010BB500003F
:010BB600003E
:010BB700003D
:010BB800003C
:010BB900003B
:010BBA00003A
:010BBB000039
:010BBC000038
:010BBD000037
:010BBE000036
:010BBF000035
:010BC0000034
:010BC1000033
:010BC2000032
:010BC3000031
:010BC4000030
:010BC500002F
:010BC600002E
:010BC700002D
:010BC8000725
:010BC900002B
:010BCA0030FA
:010BCB000029
:010BCC0070B8
:010BCD000027
:010BCE00C066
:010BCF000025
:010BD000C064
:010BD1000023
:010BD200C062
:010BD300F62B
:010BD4007FA1
:010BD500F629
:010BD6003FDF
:010BD700001D
:010BD800001C
:010BD900001B
:010BDA00001A
:010BDB000019
:010BDC000018
:010BDD000017
:010BDE000016
:010BDF000015
:010BE0000014
:010BE1000013
:010BE2000012
:010BE3000011
:010BE4000010
:010BE500000F
:010BE600000E
:010BE700000D
:010BE800000C
:010BE900000B
:010BEA00000A
:010BEB000801
:010BEC00FF09
:010BED001FE8
:010BEE00FF07
:010BEF001FE6
:010BF0008084
:010BF1000102
:010BF200C042
:010BF30003FE
:010BF40060A0
:010BF50006F9
:010BF60030CE
:010BF7000CF1
:010BF80018E4
:010BF90018E3
:010BFA0008F2
:010BFB0010E9
:010BFC0000F8
:010BFD0000F7
:010BFE0000F6
:010BFF0000F5
:010C000000F3
:010C010000F2
:010C020000F1
:010C030000F0
:010C040000EF
:010C050000EE
:010C060000ED
:010C070000EC
:010C080000EB
:010C090000EA
:010C0A0000E9
:010C0B0000E8
:010C0C0000E7
:010C0D0000E6
:010C0E0002E3
:010C0F00FFE5
:010C10001FC4
:010C1100FFE3
:010C12001FC2
:010C130000E0
:010C140000DF
:010C150000DE
:010C160000DD
:010C170000DC
:010C180000DB
:010C190000DA
:010C1A0000D9
:010C1B0000D8
:010C1C0000D7
:010C1D0000D6
:010C1E0000D5
:010C1F0000D4
:010C200000D3
:010C210000D2
:010C220000D1
:010C230000D0
:010C240000CF
:010C250000CE
:010C260000CD
:010C270000CC
:010C280000CB
:010C290000CA
:010C2A0000C9
:010C2B0000C8
:010C2C0000C7
:010C2D0000C6
:010C2E0000C5
:010C2F0000C4
:010C300000C3
:010C31000CB6
:010C3200F8C9
:010C33001FA1
:010C3400F8C7
:010C35001F9F
:010C3600308D
:010C370000BC
:010C380018A3
:010C390000BA
:010C3A0018A1
:010C3B0000B8
:010C3C00F0C7
:010C3D001F97
:010C3E00E0D5
:010C3F001F95
:010C40003083
:010C410000B2
:010C42001899
:010C430000B0
:010C44001897
:010C450000AE
:010C4600F0BD
:010C47001F8D
:010C4800E0CB
:010C49001F8B
:010C4A0000A9
:010C4B0000A8
:010C4C0000A7
:010C4D0000A6
:010C4E0000A5
:010C4F0000A4
:010C500000A3
:010C510000A2
:010C520000A1
:010C530000A0
:010C54000897
:010C5500F8A6
:010C56001F7E
:010C5700F8A4
:010C58001F7C
:010C5900306A
:010C5A000099
:010C5B001880
:010C5C000097
:010C5D00187E
:010C5E000095
:010C5F00385C
:010C60000093
:010C6100F0A2
:010C62001F72
:010C6300E0B0
:010C64001F70
:010C6500008E
:010C6600008D
:010C6700008C
:010C6800008B
:010C6900008A
:010C6A000089
:010C6B000088
:010C6C000087
:010C6D000086
:010C6E000085
:010C6F000084
:010C70000083
:010C71000082
:010C72000081
:010C73000080
:010C7400007F
:010C7500007E
:010C7600007D
:010C77000A72
:010C7800E09B
:010C79000773
:010C7A00F089
:010C7B000F69
:010C7C00383F
:010C7D001C5A
:010C7E00185D
:010C7F00185C
:010C8000185B
:010C8100185A
:010C82001859
:010C83001858
:010C84001857
:010C85001856
:010C86003835
:010C87001C50
:010C8800F07B
:010C89000F5B
:010C8A00E089
:010C8B000761
:010C8C000067
:010C8D000066
:010C8E000065
:010C8F000064
:010C90000063
:010C91000062
:010C92000061
:010C93000060
:010C9400005F
:010C9500005E
:010C9600005D
:010C9700005C
:010C9800005B
:010C9900005A
:010C9A000950
:010C9B00F860
:010C9C00FF58
:010C9D00F85E
:010C9E00FF56
:010C9F003024
:010CA0000C47
:010CA100183A
:010CA2001839
:010CA3001838
:010CA4001837
:010CA5001836
:010CA6001835
:010CA7001834
:010CA8001833
:010CA900F05A
:010CAA000F3A
:010CAB00E068
:010CAC000740
:010CAD000046
:010CAE000045
:010CAF000044
:010CB0000043
:010CB1000042
:010CB2000041
:010CB3000040
:010CB400003F
:010CB500003E
:010CB600003D
:010CB700003C
:010CB800003B
:010CB900003A
:010CBA000039
:010CBB000038
:010CBC000037
:010CBD00092D
:010CBE00E055
:010CBF00072D
:010CC000F043
:010CC1000F23
:010CC2001819
:010CC3001818
:010CC4001817
:010CC5001816
:010CC6001815
:010CC7001814
:010CC8001813
:010CC9001812
:010CCA0030F9
:010CCB000C1C
:010CCC00F82F
:010CCD00FF27
:010CCE00F82D
:010CCF00FF25
:010CD0000023
:010CD1000022
:010CD2000021
:010CD3000020
:010CD400001F
:010CD500001E
:010CD600001D
:010CD700001C
:010CD800001B
:010CD900001A
:010CDA000019
:010CDB000018
:010CDC000017
:010CDD000016
:010CDE000015
:010CDF000014
:010CE000050E
:010CE100F81A
:010CE2001FF2
:010CE300F818
:010CE4001FF0
:010CE50030DE
:010CE600000D
:010CE70018F4
:010CE800000B
:010CE90018F2
:010CEA000009
:010CEB000008
:010CEC000007
:010CED000006
:010CEE000005
:010CEF000004
:010CF0000003
:010CF1000002
:010CF2000001
:010CF3000000
:010CF40000FF
:010CF50000FE
:010CF60000FD
:010CF70000FC
:010CF80000FB
:010CF90000FA
:010CFA0000F9
:010CFB0000F8
:010CFC0000F7
:010CFD0000F6
:010CFE0000F5
:010CFF0000F4
:010D000000F2
:010D010000F1
:010D020000F0
:010D030008E7
:010D0400608E
:010D050004E9
:010D0600F0FC
:010D07000CDF
:010D08009852
:010D090019D0
:010D0A009850
:010D0B0019CE
:010D0C00984E
:010D0D0019CC
:010D0E00984C
:010D0F0019CA
:010D100030B2
:010D11000FD2
:010D120020C0
:010D130006D9
:010D140000DE
:010D150000DD
:010D160000DC
:010D170000DB
:010D180000DA
:010D190000D9
:010D1A0000D8
:010D1B0000D7
:010D1C0000D6
:010D1D0000D5
:010D1E0000D4
:010D1F0000D3
:010D200000D2
:010D210000D1
:010D220000D0
:010D230000CF
:010D240000CE
:010D250000CD
:010D260005C7
:010D270018B3
:010D280000CA
:010D2900FFCA
:010D2A0007C1
:010D2B00FFC8
:010D2C000FB7
:010D2D0018AD
:010D2E0018AC
:010D2F0018AB
:010D300018AA
:010D310000C1
:010D320000C0
:010D330000BF
:010D340000BE
:010D350000BD
:010D360000BC
:010D370000BB
:010D380000BA
:010D390000B9
:010D3A0000B8
:010D3B0000B7
:010D3C0000B6
:010D3D0000B5
:010D3E0000B4
:010D3F0000B3
:010D400000B2
:010D410000B1
:010D420000B0
:010D430000AF
:010D440000AE
:010D450000AD
:010D460000AC
:010D470000AB
:010D480000AA
:010D49000A9F
:010D4A00F8B0
:010D4B0007A0
:010D4C00F8AE
:010D4D000F96
:010D4E0000A4
:010D4F001C87
:010D500000A2
:010D51001889
:010D520000A0
:010D53001887
:010D5400009E
:010D55001885
:010D5600009C
:010D57000C8F
:010D5800F8A2
:010D59000F8A
:010D5A00F8A0
:010D5B001F78
:010D5C000096
:010D5D001085
:010D5E000094
:010D5F000093
:010D60000092
:010D61000091
:010D62000090
:010D6300008F
:010D6400008E
:010D6500008D
:010D6600008C
:010D6700008B
:010D6800008A
:010D69000089
:010D6A000088
:010D6B000087
:010D6C00097D
:010D6D00F88D
:010D6E000183
:010D6F00F88B
:010D7000037F
:010D71000081
:010D7200067A
:010D7300007F
:010D74000C72
:010D7500007D
:010D76001864
:010D7700007B
:010D78000C6E
:010D79000079
:010D7A000672
:010D7B00F87F
:010D7C000373
:010D7D00F87D
:010D7E000173
:010D7F000073
:010D80000072
:010D81000071
:010D82000070
:010D8300006F
:010D8400006E
:010D8500006D
:010D8600006C
:010D8700006B
:010D8800006A
:010D89000069
:010D8A000068
:010D8B000067
:010D8C000066
:010D8D000065
:010D8E000064
:010D8F00095A
:010D9000F86A
:010D91000F52
:010D9200F868
:010D93001F40
:010D9400005E
:010D95001845
:010D9600005C
:010D97000C4F
:010D9800005A
:010D99000653
:010D9A000058
:010D9B000C4B
:010D9C000056
:010D9D00183D
:010D9E00F85C
:010D9F001F34
:010DA000F85A
:010DA1000F42
:010DA2000050
:010DA300004F
:010DA400004E
:010DA500004D
:010DA600004C
:010DA700004B
:010DA800004A
:010DA9000049
:010DAA000048
:010DAB000047
:010DAC000046
:010DAD000045
:010DAE000044
:010DAF000043
:010DB0000042
:010DB1000041
:010DB2000838
:010DB3000837
:010DB400102E
:010DB5003805
:010DB6001C20
:010DB70060DB
:010DB8000634
:010DB900C079
:010DBA000335
:010DBB00C077
:010DBC000333
:010DBD0060D5
:010DBE00062E
:010DBF0038FB
:010DC0001C16
:010DC1000829
:010DC2001020
:010DC300002F
:010DC400002E
:010DC500002D
:010DC600002C
:010DC700002B
:010DC800002A
:010DC9000029
:010DCA000028
:010DCB000027
:010DCC000026
:010DCD000025
:010DCE000024
:010DCF000023
:010DD0000022
:010DD1000021
:010DD2000020
:010DD300001F
:010DD400001E
:010DD5000914
:010DD600F824
:010DD70031EA
:010DD800F822
:010DD90073A6
:010DDA000018
:010DDB00C651
:010DDC000016
:010DDD00C64F
:010DDE000014
:010DDF00C64D
:010DE0000012
:010DE100C64B
:010DE2000010
:010DE300C34C
:010DE400F816
:010DE5007F8E
:010DE600F814
:010DE7003FCC
:010DE800000A
:010DE9000009
:010DEA000008
:010DEB000007
:010DEC000006
:010DED000005
:010DEE000004
:010DEF000003
:010DF0000002
:010DF1000001
:010DF2000000
:010DF30000FF
:010DF40000FE
:010DF50000FD
:010DF60000FC
:010DF70000FB
:010DF80009F1
:010DF90018E1
:010DFA0018E0
:010DFB0018DF
:010DFC001CDA
:010DFD0018DD
:010DFE001ED6
:010DFF0018DB
:010E00001BD6
:010E01009858
:010E020019D6
:010E0300D816
:010E040018D5
:010E05007874
:010E060018D3
:010E070038B2
:010E080018D1
:010E090018D0
:010E0A0018CF
:010E0B0000E6
:010E0C0000E5
:010E0D0000E4
:010E0E0000E3
:010E0F0000E2
:010E100000E1
:010E110000E0
:010E120000DF
:010E130000DE
:010E140000DD
:010E150000DC
:010E160000DB
:010E170000DA
:010E180000D9
:010E190000D8
:010E1A0000D7
:010E1B0008CE
:010E1C008055
:010E1D0001D3
:010E1E00C013
:010E1F0003CF
:010E2000C011
:010E210003CD
:010E2200309F
:010E23000CC2
:010E24003C91
:010E25003C90
:010E26000EBD
:010E2700705A
:010E280003C6
:010E2900C008
:010E2A0001C6
:010E2B008046
:010E2C0000C5
:010E2D0000C4
:010E2E0000C3
:010E2F0000C2
:010E300000C1
:010E310000C0
:010E320000BF
:010E330000BE
:010E340000BD
:010E350000BC
:010E360000BB
:010E370000BA
:010E380000B9
:010E390000B8
:010E3A0000B7
:010E3B0000B6
:010E3C0000B5
:010E3D0000B4
:010E3E0003B0
:010E3F007F33
:010E4000FEB3
:010E41007F31
:010E4200FEB1
:010E43007F2F
:010E4400FEAF
:010E450000AC
:010E460000AB
:010E470000AA
:010E480000A9
:010E490000A8
:010E4A0000A7
:010E4B0000A6
:010E4C0000A5
:010E4D0000A4
:010E4E0000A3
:010E4F0000A2
:010E500000A1
:010E510000A0
:010E5200009F
:010E5300009E
:010E5400009D
:010E5500009C
:010E5600009B
:010E5700009A
:010E58000099
:010E59000098
:010E5A000097
:010E5B000096
:010E5C000095
:010E5D000094
:010E5E000093
:010E5F000092
:010E60000091
:010E61000888
:010E6200018E
:010E6300800E
:010E6400038A
:010E6500C0CC
:010E66000E7D
:010E6700701A
:010E68003C4D
:010E69003C4C
:010E6A003057
:010E6B000C7A
:010E6C00C0C5
:010E6D000381
:010E6E00C0C3
:010E6F00037F
:010E70008001
:010E7100017F
:010E7200007F
:010E7300007E
:010E7400007D
:010E7500007C
:010E7600007B
:010E7700007A
:010E78000079
:010E79000078
:010E7A000077
:010E7B000076
:010E7C000075
:010E7D000074
:010E7E000073
:010E7F000072
:010E80000071
:010E81000070
:010E8200006F
:010E8300006E
:010E84000865
:010E8500006C
:010E86000368
:010E870080EA
:010E88000168
:010E890080E8
:010E8A000166
:010E8B0080E6
:010E8C000164
:010E8D000064
:010E8E000360
:010E8F000062
:010E9000035E
:010E91000060
:010E9200035C
:010E930080DE
:010E9400015C
:010E9500005C
:010E9600005B
:010E9700005A
:010E98000059
:010E99000058
:010E9A000057
:010E9B000056
:010E9C000055
:010E9D000054
:010E9E000053
:010E9F000052
:010EA0000051
:010EA1000050
:010EA200004F
:010EA300004E
:010EA400004D
:010EA500004C
:010EA600004B
:010EA7000347
:010EA8000049
:010EA9000048
:010EAA000047
:010EAB000046
:010EAC000045
:010EAD000044
:010EAE000043
:010EAF000042
:010EB0000041
:010EB1000040
:010EB200003F
:010EB300003E
:010EB400003D
:010EB500003C
:010EB600003B
:010EB700003A
:010EB8000039
:010EB9000038
:010EBA000037
:010EBB000036
:010EBC000035
:010EBD000034
:010EBE000033
:010EBF000032
:010EC0000031
:010EC1000030
:010EC200002F
:010EC300002E
:010EC400002D
:010EC500002C
:010EC600002B
:010EC700002A
:010EC8000029
:010EC9000028
:010ECA000027
:010ECB000026
:010ECC000025
:010ECD000024
:010ECE000023
:010ECF000022
:010ED0000021
:010ED1000020
:010ED200001F
:010ED300001E
:010ED400001D
:010ED500001C
:010ED600001B
:010ED700001A
:010ED8000019
:010ED9000018
:010EDA000017
:010EDB000016
:010EDC000015
:010EDD000014
:010EDE000013
:010EDF000012
:010EE000030E
:010EE100FE12
:010EE200FE11
:010EE300000E
:010EE400CF3E
:010EE500CF3D
:010EE600000B
:010EE700000A
:010EE8000009
:010EE9000008
:010EEA000007
:010EEB000006
:010EEC000005
:010EED000004
:010EEE000003
:010EEF000002
:010EF0000001
:010EF1000000
:010EF20000FF
:010EF30000FE
:010EF40000FD
:010EF50000FC
:010EF60000FB
:010EF70000FA
:010EF80000F9
:010EF90000F8
:010EFA0000F7
:010EFB0000F6
:010EFC0000F5
:010EFD0000F4
:010EFE0000F3
:010EFF0000F2
:010F000000F0
:010F010000EF
:010F020000EE
:010F030000ED
:010F040000EC
:010F050000EB
:010F060000EA
:010F070000E9
:010F080000E8
:010F090000E7
:010F0A0000E6
:010F0B0000E5
:010F0C0000E4
:010F0D0000E3
:010F0E0000E2
:010F0F0000E1
:010F100000E0
:010F110000DF
:010F120000DE
:010F130000DD
:010F140000DC
:010F150000DB
:010F160000DA
:010F170000D9
:010F180000D8
:010F19000ACD
:010F1A0000D6
:010F1B0000D5
:010F1C0000D4
:010F1D0000D3
:010F1E0000D2
:010F1F0000D1
:010F200000D0
:010F210000CF
:010F220000CE
:010F230000CD
:010F2400309C
:010F2500309B
:010F2600309A
:010F27003099
:010F28003098
:010F29003097
:010F2A003096
:010F2B003095
:010F2C003094
:010F2D0000C3
:010F2E0000C2
:010F2F0000C1
:010F300000C0
:010F310000BF
:010F320000BE
:010F330000BD
:010F340000BC
:010F350000BB
:010F360000BA
:010F370000B9
:010F380000B8
:010F390000B7
:010F3A0000B6
:010F3B0000B5
:010F3C0000B4
:010F3D0000B3
:010F3E0000B2
:010F3F0000B1
:010F400000B0
:010F410000AF
:010F420000AE
:010F430000AD
:010F440000AC
:010F450000AB
:010F460000AA
:010F470000A9
:010F480000A8
:010F490000A7
:010F4A0000A6
:010F4B0000A5
:010F4C0000A4
:010F4D0000A3
:010F4E0000A2
:010F4F0000A1
:010F500000A0
:010F5100009F
:010F52000C92
:010F5300603D
:010F5400603C
:010F5500603B
:010F5600F0AA
:010F5700FE9B
:010F58006E2A
:010F59006037
:010F5A006036
:010F5B00F0A5
:010F5C00FE96
:010F5D006E25
:010F5E000092
:010F5F000C85
:010F6000ECA4
:010F6100FF90
:010F62003F4F
:010F63000D80
:010F64000C80
:010F6500EC9F
:010F6600FF8B
:010F67003F4A
:010F68000D7B
:010F69000C7B
:010F6A000086
:010F6B000085
:010F6C000084
:010F6D000083
:010F6E000082
:010F6F000081
:010F70000080
:010F7100007F
:010F7200007E
:010F7300007D
:010F7400007C
:010F7500007B
:010F7600007A
:010F77000079
:010F78000078
:010F79000077
:010F7A000076
:010F7B000075
:010F7C000074
:010F7D000073
:010F7E000072
:010F7F000071
:010F80000070
:010F8100006F
:010F8200006E
:010F8300006D
:010F8400006C
:010F8500006B
:010F8600006A
:010F87000069
:010F88000068
:010F89000067
:010F8A000066
:010F8B001055
:010F8C00E084
:010F8D00F073
:010F8E005012
:010F8F00D889
:010F900098C8
:010F91001847
:010F9200302E
:010F9300E07D
:010F9400F06C
:010F9500302B
:010F96001842
:010F97001841
:010F98001840
:010F9900F85F
:010F9A00F066
:010F9B000055
:010F9C000054
:010F9D0071E2
:010F9E00F959
:010F9F0099B8
:010FA00088C8
:010FA100C887
:010FA2004C02
:010FA3006CE1
:010FA4002428
:010FA5002427
:010FA60076D4
:010FA700F653
:010FA80093B5
:010FA900F354
:010FAA0061E5
:010FAB000045
:010FAC000044
:010FAD000043
:010FAE000042
:010FAF000041
:010FB0000040
:010FB100003F
:010FB200003E
:010FB300003D
:010FB400003C
:010FB500003B
:010FB600003A
:010FB7000039
:010FB8000038
:010FB9000037
:010FBA000036
:010FBB000035
:010FBC000034
:010FBD000033
:010FBE000032
:010FBF000031
:010FC0000030
:010FC100002F
:010FC200002E
:010FC300002D
:010FC4000F1D
:010FC500F03B
:010FC600F832
:010FC7009891
:010FC800F830
:010FC900F037
:010FCA000026
:010FCB0080A5
:010FCC00C064
:010FCD0070B3
:010FCE003CE6
:010FCF000E13
:010FD000021E
:010FD100001F
:010FD200001E
:010FD300001D
:010FD400001C
:010FD500011A
:010FD600C159
:010FD700E138
:010FD80038E0
:010FD9001EF9
:010FDA00070F
:010FDB000114
:010FDC000014
:010FDD001EF5
:010FDE003FD3
:010FDF0033DE
:010FE0003FD1
:010FE1001EF1
:010FE200000E
:010FE300000D
:010FE400000C
:010FE500000B
:010FE600000A
:010FE7000009
:010FE8000008
:010FE9000007
:010FEA000006
:010FEB000005
:010FEC000004
:010FED000003
:010FEE000002
:010FEF000001
:010FF0000000
:010FF10000FF
:010FF20000FE
:010FF30000FD
:010FF40000FC
:010FF50000FB
:010FF60000FA
:010FF70000F9
:010FF80000F8
:010FF90000F7
:010FFA0000F6
:010FFB0000F5
:010FFC0000F4
:010FFD0003F0
:010FFE006092
:010FFF006091
:0110000000EF
:0110010030BE
:0110020030BD
:0110030000EC
:0110040000EB
:0110050000EA
:0110060000E9
:0110070000E8
:0110080000E7
:0110090000E6
:01100A0000E5
:01100B0000E4
:01100C0000E3
:01100D0000E2
:01100E0000E1
:01100F0000E0
:0110100000DF
:0110110000DE
:0110120000DD
:0110130000DC
:0110140000DB
:0110150000DA
:0110160000D9
:0110170000D8
:0110180000D7
:0110190000D6
:01101A0000D5
:01101B0000D4
:01101C0000D3
:01101D0000D2
:01101E0000D1
:01101F0000D0
:0110200000CF
:0110210000CE
:0110220000CD
:0110230000CC
:0110240000CB
:0110250000CA
:0110260000C9
:0110270000C8
:0110280000C7
:0110290000C6
:01102A0000C5
:01102B0000C4
:01102C0000C3
:01102D0000C2
:01102E0000C1
:01102F0000C0
:0110300000BF
:0110310000BE
:0110320000BD
:0110330000BC
:0110340000BB
:0110350000BA
:0110360003B6
:011037006058
:011038006057
:0110390000B6
:01103A003085
:01103B00F0C4
:01103C0000B3
:01103D0000B2
:01103E0000B1
:01103F0000B0
:0110400000AF
:0110410000AE
:0110420000AD
:0110430000AC
:0110440000AB
:0110450000AA
:0110460000A9
:0110470000A8
:0110480000A7
:0110490000A6
:01104A0000A5
:01104B0000A4
:01104C0000A3
:01104D0000A2
:01104E0000A1
:01104F0000A0
:01105000009F
:01105100009E
:01105200009D
:01105300009C
:01105400009B
:01105500009A
:011056000099
:011057000098
:011058000097
:011059000096
:01105A000095
:01105B000094
:01105C000093
:01105D000092
:01105E000091
:01105F000090
:01106000008F
:01106100008E
:01106200008D
:01106300008C
:01106400008B
:01106500008A
:011066000089
:011067000088
:011068000087
:011069000086
:01106A000085
:01106B000084
:01106C000083
:01106D000082
:01106E000081
:01106F00067A
:01107000E09F
:01107100FC82
:011072001E5F
:011073000379
:01107400017A
:01107500007A
:011076000772
:011077003F39
:0110780078FF
:01107900C0B6
:01107A0080F5
:01107B000074
:01107C000073
:01107D000072
:01107E000071
:01107F000070
:01108000006F
:01108100006E
:01108200006D
:01108300006C
:01108400006B
:01108500006A
:011086000069
:011087000068
:011088000067
:011089000066
:01108A000065
:01108B000064
:01108C000063
:01108D000062
:01108E000061
:01108F000060
:01109000005F
:01109100005E
:01109200005D
:01109300005C
:01109400005B
:01109500005A
:011096000059
:011097000058
:011098000057
:011099000056
:01109A000055
:01109B000054
:01109C000053
:01109D000052
:01109E000051
:01109F000050
:0110A000004F
:0110A100004E
:0110A200004D
:0110A300004C
:0110A400004B
:0110A500004A
:0110A6000049
:0110A7000048
:0110A8000641
:0110A9000145
:0110AA000342
:0110AB001E26
:0110AC00FC47
:0110AD00E062
:0110AE000041
:0110AF0080C0
:0110B000C07F
:0110B10078C6
:0110B2003FFE
:0110B3000735
:0110B400003B
:0110B500003A
:0110B6000039
:0110B7000038
:0110B8000037
:0110B9000036
:0110BA000035
:0110BB000034
:0110BC000033
:0110BD000032
:0110BE000031
:0110BF000030
:0110C000002F
:0110C100002E
:0110C200002D
:0110C300002C
:0110C400002B
:0110C500002A
:0110C6000029
:0110C7000028
:0110C8000027
:0110C9000026
:0110CA000025
:0110CB000024
:0110CC000023
:0110CD000022
:0110CE000021
:0110CF000020
:0110D000001F
:0110D100001E
:0110D200001D
:0110D300001C
:0110D400001B
:0110D500001A
:0110D6000019
:0110D7000018
:0110D8000017
:0110D9000016
:0110DA000015
:0110DB000014
:0110DC000013
:0110DD000012
:0110DE000011
:0110DF000010
:0110E000000F
:0110E1000B03
:0110E200000D
:0110E300000C
:0110E400000B
:0110E500000A
:0110E600C049
:0110E700C048
:0110E8000007
:0110E9000006
:0110EA000005
:0110EB000004
:0110EC000003
:0110ED0006FC
:0110EE0006FB
:0110EF0006FA
:0110F00006F9
:0110F1003FBF
:0110F2003FBE
:0110F30006F6
:0110F40006F5
:0110F50006F4
:0110F60006F3
:0110F70000F8
:0110F80000F7
:0110F90000F6
:0110FA0000F5
:0110FB0000F4
:0110FC0000F3
:0110FD0000F2
:0110FE0000F1
:0110FF0000F0
:0111000000EE
:0111010000ED
:0111020000EC
:0111030000EB
:0111040000EA
:0111050000E9
:0111060000E8
:0111070000E7
:0111080000E6
:0111090000E5
:01110A0000E4
:01110B0000E3
:01110C0000E2
:01110D0000E1
:01110E0000E0
:01110F0000DF
:0111100000DE
:0111110000DD
:0111120000DC
:0111130000DB
:0111140000DA
:0111150000D9
:0111160000D8
:0111170000D7
:0111180000D6
:0111190000D5
:01111A0016BE
:01111B00E0F3
:01111C00F0E2
:01111D003899
:01111E009838
:01111F009837
:011120009836
:0111210018B5
:011122003894
:01112300F8D3
:01112400F0DA
:0111250000C9
:01112600F0D8
:01112700F8CF
:0111280018AE
:01112900388D
:01112A00F0D4
:01112B00F8CB
:01112C0018AA
:01112D003889
:01112E00F0D0
:01112F00E0DF
:0111300000BE
:0111310003BA
:01113200E7D5
:01113300EFCC
:011134006D4D
:011135006851
:011136006D4B
:011137006750
:011138006056
:011139006F46
:01113A006F45
:01113B006C47
:01113C006F43
:01113D006F42
:01113E006050
:01113F00604F
:011140006F3F
:011141006F3E
:01114200604C
:01114300703B
:011144003F6B
:011145001F8A
:0111460000A8
:0111470000A7
:0111480000A6
:0111490000A5
:01114A0000A4
:01114B0000A3
:01114C0000A2
:01114D0000A1
:01114E0000A0
:01114F00009F
:01115000009E
:01115100009D
:01115200009C
:011153000F8C
:01115400009A
:01115500FC9D
:01115600FE9A
:011157000790
:011158003363
:011159007B1A
:01115A005B39
:01115B007B18
:01115C001B77
:01115D00FB96
:01115E00F39D
:01115F000788
:01116000FE90
:01116100FC91
:01116200008C
:011163007813
:01116400FD8D
:01116500CFBA
:01116600DEAA
:01116700FB8C
:011168007313
:01116900F392
:01116A00FB89
:01116B00DFA4
:01116C00CFB3
:01116D00C7BA
:01116E00661A
:01116F007C03
:011170003846
:01117100007D
:01117200007C
:01117300007B
:01117400007A
:011175000079
:011176000078
:011177000077
:011178000076
:011179000075
:01117A000074
:01117B000073
:01117C000072
:01117D000071
:01117E000070
:01117F00006F
:01118000006E
:01118100006D
:01118200006C
:01118300006B
:01118400006A
:011185000069
:011186000068
:011187000067
:011188000066
:011189000065
:01118A000064
:01118B000063
:01118C00065C
:01118D000061
:01118E000060
:01118F00005F
:01119000005E
:01119100005D
:01119200005C
:011193000655
:011194000654
:011195000653
:011196000652
:011197000651
:011198000056
:011199000055
:01119A000054
:01119B000053
:01119C000052
:01119D000051
:01119E000050
:01119F00004F
:0111A000004E
:0111A100004D
:0111A200004C
:0111A300004B
:0111A400004A
:0111A5000049
:0111A6000048
:0111A7000047
:0111A8000046
:0111A9000045
:0111AA000044
:0111AB000043
:0111AC000042
:0111AD000041
:0111AE000040
:0111AF00003F
:0111B000003E
:0111B100003D
:0111B200003C
:0111B300003B
:0111B400003A
:0111B5000039
:0111B6000038
:0111B7000037
:0111B8000036
:0111B9000035
:0111BA000034
:0111BB000033
:0111BC000032
:0111BD000031
:0111BE000030
:0111BF00002F
:0111C000002E
:0111C100002D
:0111C200002C
:0111C300002B
:0111C400002A
:0111C5000326
:0111C6000028
:0111C7000027
:0111C8000026
:0111C900C065
:0111CA00C064
:0111CB000023
:0111CC000022
:0111CD000021
:0111CE000020
:0111CF00001F
:0111D000001E
:0111D100001D
:0111D200001C
:0111D300001B
:0111D400001A
:0111D5000019
:0111D6000018
:0111D7000017
:0111D8000016
:0111D9000015
:0111DA000014
:0111DB000013
:0111DC000012
:0111DD000011
:0111DE000010
:0111DF00000F
:0111E000000E
:0111E100000D
:0111E200000C
:0111E300000B
:0111E400000A
:0111E5000009
:0111E6000008
:0111E7000007
:0111E8000006
:0111E9000005
:0111EA000004
:0111EB000003
:0111EC000002
:0111ED000001
:0111EE000000
:0111EF0000FF
:0111F00000FE
:0111F10000FD
:0111F20000FC
:0111F30000FB
:0111F40000FA
:0111F50000F9
:0111F60000F8
:0111F70000F7
:0111F80000F6
:0111F90000F5
:0111FA0000F4
:0111FB0000F3
:0111FC0000F2
:0111FD0000F1
:0111FE0007E9
:0111FF0000EF
:0112000000ED
:0112010000EC
:01120200F0FB
:01120300FEEC
:011204000EDB
:0112050000E8
:011206008067
:01120700F8EE
:011208007F66
:0112090007DD
:01120A0000E3
:01120B0000E2
:01120C0000E1
:01120D0000E0
:01120E0000DF
:01120F0000DE
:0112100000DD
:0112110000DC
:0112120000DB
:0112130000DA
:0112140000D9
:0112150000D8
:0112160000D7
:0112170000D6
:0112180000D5
:0112190000D4
:01121A0000D3
:01121B0000D2
:01121C0000D1
:01121D0000D0
:01121E0000CF
:01121F0000CE
:0112200000CD
:0112210000CC
:0112220000CB
:0112230000CA
:0112240000C9
:0112250000C8
:0112260000C7
:0112270000C6
:0112280000C5
:0112290000C4
:01122A0000C3
:01122B0000C2
:01122C0000C1
:01122D0000C0
:01122E0000BF
:01122F0000BE
:0112300000BD
:0112310000BC
:0112320000BB
:0112330000BA
:0112340000B9
:0112350000B8
:0112360000B7
:0112370009AD
:01123800FCB9
:01123900FEB6
:01123A000EA5
:01123B0006AC
:01123C0006AB
:01123D000EA2
:01123E00FEB1
:01123F00FCB2
:0112400000AD
:011241007F2D
:01124200FFAC
:01124300E0CA
:01124400C0E9
:01124500C0E8
:01124600E0C7
:01124700FFA7
:011248007F26
:0112490000A4
:01124A0000A3
:01124B0000A2
:01124C0000A1
:01124D0000A0
:01124E00009F
:01124F00009E
:01125000009D
:01125100009C
:01125200009B
:01125300009A
:011254000099
:011255000098
:011256000097
:011257000096
:011258000095
:011259000094
:01125A000093
:01125B000092
:01125C000091
:01125D000090
:01125E00008F
:01125F00008E
:01126000008D
:01126100008C
:01126200008B
:01126300008A
:011264000089
:011265000088
:011266000087
:011267000086
:011268000085
:011269000084
:01126A000083
:01126B000082
:01126C000081
:01126D000080
:01126E00007F
:01126F00007E
:011270000677
:01127100304C
:011272001863
:011273000C6E
:01127400FE7B
:01127500FE7A
:011276000077
:011277000076
:011278000075
:011279000074
:01127A00FF74
:01127B00FF73
:01127C000071
:01127D000070
:01127E00006F
:01127F00006E
:01128000006D
:01128100006C
:01128200006B
:01128300006A
:011284000069
:011285000068
:011286000067
:011287000066
:011288000065
:011289000064
:01128A000063
:01128B000062
:01128C000061
:01128D000060
:01128E00005F
:01128F00005E
:01129000005D
:01129100005C
:01129200005B
:01129300005A
:011294000059
:011295000058
:011296000057
:011297000056
:011298000055
:011299000054
:01129A000053
:01129B000052
:01129C000051
:01129D000050
:01129E00004F
:01129F00004E
:0112A000004D
:0112A100004C
:0112A200004B
:0112A300004A
:0112A4000049
:0112A5000048
:0112A6000047
:0112A7000046
:0112A8000045
:0112A900093B
:0112AA00182B
:0112AB001C26
:0112AC000E33
:0112AD00063A
:0112AE000639
:0112AF008EB0
:0112B000FC41
:0112B100F844
:0112B200003B
:0112B300E05A
:0112B400F049
:0112B500D860
:0112B600CC6B
:0112B700C670
:0112B800C372
:0112B900C173
:0112BA00C073
:0112BB000032
:0112BC000031
:0112BD000030
:0112BE00002F
:0112BF00002E
:0112C000002D
:0112C100002C
:0112C200002B
:0112C300002A
:0112C4000029
:0112C5000028
:0112C6000027
:0112C7000026
:0112C8000025
:0112C9000024
:0112CA000023
:0112CB000022
:0112CC000021
:0112CD000020
:0112CE00001F
:0112CF00001E
:0112D000001D
:0112D100001C
:0112D200001B
:0112D300001A
:0112D4000019
:0112D5000018
:0112D6000017
:0112D7000016
:0112D8000015
:0112D9000014
:0112DA000013
:0112DB000012
:0112DC000011
:0112DD000010
:0112DE00000F
:0112DF00000E
:0112E000000D
:0112E100000C
:0112E2000902
:0112E30018F2
:0112E4001CED
:0112E5000EFA
:0112E6008681
:0112E7008680
:0112E800CE37
:0112E9007C88
:0112EA0038CB
:0112EB000002
:0112EC0030D1
:0112ED007090
:0112EE00E01F
:0112EF00C13D
:0112F000C13C
:0112F100E319
:0112F2007F7C
:0112F3003EBC
:0112F40000F9
:0112F50000F8
:0112F60000F7
:0112F70000F6
:0112F80000F5
:0112F90000F4
:0112FA0000F3
:0112FB0000F2
:0112FC0000F1
:0112FD0000F0
:0112FE0000EF
:0112FF0000EE
:0113000000EC
:0113010000EB
:0113020000EA
:0113030000E9
:0113040000E8
:0113050000E7
:0113060000E6
:0113070000E5
:0113080000E4
:0113090000E3
:01130A0000E2
:01130B0000E1
:01130C0000E0
:01130D0000DF
:01130E0000DE
:01130F0000DD
:0113100000DC
:0113110000DB
:0113120000DA
:0113130000D9
:0113140000D8
:0113150000D7
:0113160000D6
:0113170000D5
:0113180000D4
:0113190000D3
:01131A0000D2
:01131B000AC7
:01131C0000D0
:01131D00804F
:01131E00E0EE
:01131F007855
:011320001EAE
:01132100FECD
:01132200FECC
:0113230000C9
:0113240000C8
:0113250000C7
:011326000EB8
:011327000FB6
:011328000DB7
:011329000CB7
:01132A000CB6
:01132B00FFC2
:01132C00FFC1
:01132D000CB3
:01132E000CB2
:01132F0000BD
:0113300000BC
:0113310000BB
:0113320000BA
:0113330000B9
:0113340000B8
:0113350000B7
:0113360000B6
:0113370000B5
:0113380000B4
:0113390000B3
:01133A0000B2
:01133B0000B1
:01133C0000B0
:01133D0000AF
:01133E0000AE
:01133F0000AD
:0113400000AC
:0113410000AB
:0113420000AA
:0113430000A9
:0113440000A8
:0113450000A7
:0113460000A6
:0113470000A5
:0113480000A4
:0113490000A3
:01134A0000A2
:01134B0000A1
:01134C0000A0
:01134D00009F
:01134E00009E
:01134F00009D
:01135000009C
:01135100009B
:01135200009A
:011353000099
:01135400098F
:01135500FE99
:01135600FE98
:01135700C6CF
:01135800C6CE
:01135900C6CD
:01135A00C6CC
:01135B00860B
:01135C000090
:01135D00008F
:01135E00315D
