:0C01B7004A6169205372692052616D009A
:0301C30001160022
:10017E0012016612014CC280E4F5A07BFF7A017970
:06018E00B71200D580FE4F
:10014C007598504387805389CF438920758DFAE485
:0A015C00F58BD28ED29C43A89022AE
:10016600E4F589F5A8C28CC28D43890143A882753E
:080176008CF8758ACDD28C22B1
:0600D5008B0F8A10891157
:1000DB001201948E148F15E4F512F513C3E51395E5
:1000EB0015E51295145019AB0FAA10A9118513829F
:1000FB008512831201A90513E51370E0051280DC4C
:0A010B007F0D1201AF7F0A0201AF61
:060115008B088A09890A2B
:10011B001201948E0D8F0EE4F50BF50CC3E50C95C7
:10012B000EE50B950D5019AB08AA09A90A850C828F
:10013B00850B831201A9050CE50C70E0050B80DC27
:01014B002291
:0601A90012008FF516FFA5
:0801AF008F993099FDC29922DD
:03000000020003F8
:0C000300787FE4F6D8FD75811602004AF3
:10008F00BB010CE58229F582E5833AF583E0225026
:10009F0006E92582F8E622BBFE06E92582F8E22270
:0D00AF00E58229F582E5833AF583E493228A
:10019400E4FFFE1200BC600C0FEF70010E09E97061
:0501A400F20A80EF22C9
:10000F0002017EE493A3F8E493A34003F68001F288
:10001F0008DFF48029E493A3F85407240CC8C333F2
:10002F00C4540F4420C8834004F456800146F6DFC1
:10003F00E4800B01020408102040809001C3E47E8D
:10004F00019360BCA3FF543F30E509541FFEE493B6
:10005F00A360010ECF54C025E060A840B8E493A37D
:10006F00FAE493A3F8E493A3C8C582C8CAC583CAA8
:10007F00F0A3C8C582C8CAC583CADFE9DEE780BE60
:0101C6000038
:1000BC00BB010689828A83E0225002E722BBFE0242
:0900CC00E32289828A83E4932275
:00000001FF
