:1000030053657269616C20496E697469616C697AC0
:0F0013006564004A6169205372692052616D0073
:100026006CFD06E303000000000000000000000075
:1000360000000000000000000000000000000000BA
:100046000000000000000003FFE7FFE7FFE70000F5
:10005600000000000000000000000000000000009A
:10006600000000000000000000000912001F000F41
:10007600000600000012001F000F0006000000002E
:10008600000000000000000000000000000C600CF2
:1000960060CC60FEE03FF80F780C60CC60FEE03F7D
:1000A600F80F780C600C0000000000000000000053
:1000B600087838FC78FEF9E7C3C7C7BEFF3C7F382F
:1000C6003E000000000000000000000000000000EC
:1000D6000000000A00C000F0047C0E1FC407F011E7
:1000E6007C381F100700010000000000000000001F
:1000F6000000000000000A3C3C7E7EC3C383C1832F
:10010600C3C3C67E6C3C380038006C00000000009B
:100116000000000000000000000412001F000F0095
:1001260006000000000000000000000000000000C3
:1001360000000000000000000000000005F00FFCB9
:100146003F0E7003C00180000000000000000000A8
:100156000000000000000000000000000000000594
:10016600018003C00E70FC3FF00F0000000000008D
:100176000000000000000000000000000000000079
:1001860000001140004000C080C0E0C079C03FF0D0
:100196003FFC1FFF1FFC3FF03FC079C0E1C080C09D
:1001A60000400040000A0006000600060006E07F48
:1001B600E07F0006000600060006000000000000C2
:1001C600000000000000000004009000F800780025
:1001D60030000000000000000000000000000000E9
:1001E60000000000000000000000000800030003FB
:1001F60000030003000300030003000300000000E7
:1002060000000000000000000000000000000400E4
:100216006000F000F0006000000000000000000038
:1002260000000000000000000000000000000000C8
:10023600000A00C000F0007C001FC007F0017C002F
:100246001F00070001000000000000000000000081
:10025600000000000AF81FFC3FFE7F0FF007E007D2
:10026600E00FF0FE7FFC3FF81F00000000000000DA
:1002760000000000000000071CE00EE0FFFFFFFF8B
:10028600FFFF00E000E000000000000000000000AA
:1002960000000000000000000000093CF83EFC3EA3
:1002A600FE07EF87E7C7E3FEE1FEE07CE000000023
:1002B60000000000000000000000000000090738F0
:1002C600077887F9C7E1E7E1F7E3BFFF1F7F0F3E36
:1002D6000000000000000000000000000000000018
:1002E6000BC01FE01FF01F381C1C1C0E1CFFFFFF5D
:1002F600FFFFFF001C001C000000000000000000C3
:1003060000000009FF39FF79FFF9C7E1C7E1C7E13E
:10031600C7FF877F073F00000000000000000000C5
:1003260000000000000009FC3FFE7FFFFF87E38717
:10033600E387E38FFF0E7F0C3E0000000000000005
:10034600000000000000000000090700070007F891
:1003560007FE87FFE703FF003F001F0000000000C5
:10036600000000000000000000000000097C3EFEC6
:100376007FFFFFC7E1C7E1C7E1FFFFFE7F7C3E00CD
:10038600000000000000000000000000000000095E
:100396007C30FE70FFF1C7E1C7E1C7E1FFFFFE7FDA
:1003A600FC3F00000000000000000000000000000C
:1003B600000004C060E0F1E0F1C060000000000051
:1003C6000000000000000000000000000000000027
:1003D6000000000000046090F0F8F0786030000043
:1003E6000000000000000000000000000000000007
:1003F6000000000000000000088003C007C006C01F
:1004060006600C600C600C30180000000000000054
:10041600000000000000000000000008800D800DB4
:10042600800D800D800D800D800D800D0000000078
:10043600000000000000000000000000000008307E
:1004460018600C600C600CC006C006C00780030074
:100456000000000000000000000000000000000096
:1004660000091C001E001F0007EF87EFC7EFFF0003
:100476007E003C00000000000000000000000000BC
:10048600000000000FC00F30188827C44F64583290
:100496009012901290128CE29FF29FF4500C681802
:1004A60024E023000000000AF8FFFCFFFEFF0F0710
:1004B600070707070F07FEFFFCFFF8FF0000000015
:1004C600000000000000000000000AFFFFFFFFFF21
:1004D600FF87E387E387E38FF3FFFFFE7F7C3E0022
:1004E600000000000000000000000000000AF81FE5
:1004F600FC3FFE7F0FF007E007E007E01E781C38A0
:1005060018180000000000000000000000000000B5
:100516000AFFFFFFFFFFFF07E007E007E00FF0FE1F
:100526007FFC3FF81F0000000000000000000000F4
:1005360000000009FFFFFFFFFFFFC7E1C7E1C7E1BA
:10054600C7E107E007E0000000000000000000002F
:1005560000000000000009FFFFFFFFFFFF87038781
:100566000387038703070007000000000000000060
:100576000000000000000000000AF81FFC3FFE7F9C
:100586000FF007E087E38FF39E7F9C3F981F0000E4
:100596000000000000000000000000000AFFFFFF4E
:1005A600FFFFFFC001C001C001C001FFFFFFFFFF49
:1005B600FF0000000000000000000000000000072F
:1005C60007E007E0FFFFFFFFFFFF07E007E000008F
:1005D6000000000000000000000000000000000015
:1005E60000000A0038077807E007E0FFFFFF7FFFFB
:1005F6003F070007000700000000000000000000A1
:1006060000000000000AFFFFFFFFFFFFC003E00736
:10061600F00F781E3FFC1FF80FF0000000000000EE
:10062600000000000000000009FFFFFFFFFFFF00C1
:10063600E000E000E000E000E000E0000000000074
:1006460000000000000000000000000BFFFFFFFF9D
:10065600FFFF0E001C0038001C000E00FFFFFFFF0E
:10066600FFFF0000000000000000000000000BFF7C
:10067600FFFFFFFFFF7F00FC01F007C01F007FFFA9
:10068600FFFFFFFFFF000000000000000000000069
:10069600000BF81FFC3FFE7F0FF007E007E007E0C6
:1006A6000FF0FE7FFC3FF81F000000000000000076
:1006B600000000000AFFFFFFFFFFFF870387038795
:1006C60003CF03FE01FC00780000000000000000DC
:1006D600000000000000000AF81FFC3FFE7F0FF03C
:1006E60007E607FE0FFCFE7FFCFFF8EF00000000A8
:1006F600000000000000000000000AFFFFFFFFFFEF
:10070600FF8F0387038707CF0FFFFFFEFC7CF800F0
:10071600000000000000000000000000000A7C3815
:10072600FE78FFF9E7E1C7E3C7E387E79FFF1E7F90
:100736001C3E000000000000000000000000000059
:1007460009070007000700FFFFFFFFFFFF0700077D
:10075600000700000000000000000000000000008C
:100766000000000AFF3FFF7FFFFF00F000E000E00F
:1007760000F0FFFFFF7FFF3F0000000000000000C9
:1007860000000000000009FF0FFF1FFF3F00700080
:10079600E00070FF3FFF1FFF0F0000000000000099
:1007A6000000000000000000000BFFFFFFFFFFFF3E
:1007B60000700038001C00380070FFFFFFFFFFFFCD
:1007C6000000000000000000000000000B1FF03FCA
:1007D600F87FFCE00EC0078003C007E00E7FFC3FF9
:1007E600F81FF00000000000000000000000000BF1
:1007F6001F003F007F00E000C0FF80FFC0FFE00059
:100806007F003F001F000000000000000000000005
:1008160000000A07F807FC07FE07E787E3C7E1E7DA
:10082600E07FE03FE01FE000000000000000000065
:10083600000000000006FFFFFFFFFFFF07E007E0E4
:1008460007E00000000000000000000000000000BB
:1008560000000000000000000A010007001F007CE5
:1008660000F001C007001F007C00F000C00000007F
:1008760000000000000000000000000607E007E09E
:1008860007E0FFFFFFFFFFFF000000000000000081
:1008960000000000000000000000000000000B4007
:1008A6000070007C001F000700010007001F007C8D
:1008B6000070004000000000000000000000000082
:1008C600000F006000600060006000600060006073
:1008D6000060006000600060006000600060006012
:1008E600000000000406000F001F001200000000B8
:1008F60000000000000000000000000000000000F2
:10090600000000000000000A2006300F9819981910
:1009160098199819B819F00FE01F00100000000090
:100926000000000000000000000009FF1FFF1F304C
:100936000C181818181818381CF00FE007000000DB
:100946000000000000000000000000000009E007B1
:10095600F00F381C1818181818181818300C20041E
:100966000000000000000000000000000000000081
:1009760009E007F00F381C181818181818300CFF63
:100986001FFF1F0000000000000000000000000024
:1009960000000009E007F00F98199819981998199E
:1009A6009819F00C60040000000000000000000030
:1009B600000000000000053000FC1FFE1F3300335E
:1009C6000000000000000000000000000000000021
:1009D60000000000000000000009E023F06718CCCA
:1009E60018CC18CC18CC30C6F87FF83F00000000B1
:1009F60000000000000000000000000009FF1FFFCB
:100A06001F30001800180018003800F01FE01F0003
:100A160000000000000000000000000000000002CE
:100A2600F61FF61F00000000000000000000000096
:100A360000000000000000000000000000000000B0
:100A46000000070030007000C000C000C0F67FF64E
:100A56003F00000000000000000000000000000051
:100A6600000000000008FF1FFF1F8001C003600692
:100A7600300C1818081000000000000000000000EC
:100A8600000000000000000002FF1FFF1F00000022
:100A96000000000000000000000000000000000050
:100AA60000000000000000000000000CF81FF81F06
:100AB600300018001800F01FE01F30001800180062
:100AC600F01FE01F0000000000000000000008F812
:100AD6001FF81F3000180018003800F01FE01F0034
:100AE6000000000000000000000000000000000000
:100AF600000AE007F00F381C1818181818181818EC
:100B0600381CF00FE00700000000000000000000A5
:100B16000000000009F8FFF8FF300C181818181824
:100B2600181818F00FE00700000000000000000091
:100B36000000000000000009E007F00F1818181860
:100B460018181818300CF8FFF8FF00000000000015
:100B56000000000000000000000005F81FF81F302C
:100B6600001800180000000000000000000000004F
:100B76000000000000000000000000000008600403
:100B8600F00C9819981998199819300F200600003A
:100B9600000000000000000000000000000000004F
:100BA600051800FF07FF0F181818180000000000AE
:100BB600000000000000000000000000000000002F
:100BC6000000000AF807F80F001C001800180018AB
:100BD600000CF80FF81F00100000000000000000D5
:100BE60000000000000009F801F8030006000C00F0
:100BF60018000C0006F803F80100000000000000D1
:100C060000000000000000000009F80FF81F00189F
:100C1600000C0006000C0018F81FF80F000000007A
:100C26000000000000000000000000000808103866
:100C36001C6006C003C0036006381C0810000000D4
:100C46000000000000000000000000000000000995
:100C5600F831F87300C600C600C600C600C3F87FA8
:100C6600F83F000000000000000000000000000047
:100C76000000091818181C181E181B9819D818787F
:100C860018381818180000000000000000000000C6
:100C96000000000000088001C003C003300C3C3C8B
:100CA6000E7003C00180000000000000000000007C
:100CB6000000000000000000037FFE7FFE7FFE00B4
:100CC600000000000000000000000000000000001E
:100CD600000000000000000000000008018003C0C2
:100CE6000E703C3C300CC003C003800100000000C5
:100CF60000000000000000000000000000000800E6
:100D060003800180018001000300030003800100CD
:100D160000000000000000000000000000000000CD
:100D2600004120640041208600C10042208400006A
:100D360042208000004206E100004213E10000412B
:100D460013E000412082004120830042207B000006
:100D560042207D0000C18148206557454C434F4DD8
:100D660045004E206D2057454C434F4D4553205965
:030D76004F5500D6
:101CC900121CEA121CA77F017E00121D17D20112F5
:101CD90018B2121B8A120D7AE49006E1F0A3F08083
:011CE900F109
:1018B200E4902089F0A3F0FFFE900000F0902089D0
:1018C200F0A3F00F047C0070010E142400F582ECEA
:1018D2003400F583747EF0902089E0FCA3E0246557
:1018E200F58274203CF583E0602D902089E475F048
:1018F20001121B05FC746525F0F58274203CF5830A
:10190200E0FD0FEFAA0670010E142400F5827400A8
:101912003AF583EDF080C00FEFAC0670010E14248F
:1019220000F58274003CF583745EF074002FF5823A
:0719320074003EF583E4F0B0
:01193900228B
:100D7A00E49006E1F0A3F09006E1E0FEA3E024008F
:100D8A00F58274003EF583E07003021245200103E8
:100D9A0002124512174CEF14606F147003020E4DC5
:100DAA0014700302104224036003021234121C6DF1
:100DBA00902084E4F0A3743CF09013E17426F0A32D
:100DCA007470F012194C121C74E4902080F0A3F095
:100DDA00902084E0FEA3E0FFC3902081E09F902052
:100DEA0080E09E50131213B8902081E004F070E066
:100DFA00902080E004F080D89013E1E07004A3E032
:100E0A006401600302123480A4121C6D12193A1292
:100E1A001C74121C30E4902089F0902089E0D3944D
:100E2A00F474809481500B121508902089E004F024
:100E3A0080E89013E1E07004A3E064016003021209
:100E4A003480C6121C6D12193A121C74121C30E43A
:100E5A00902082F0A3F0902089F012124690208907
:100E6A00E004F0E0D3940540F19020827401F0E4AC
:100E7A00902089F0121246902089E004F0E0D39481
:100E8A000540F19020827403F0E4902089F0121258
:100E9A0046902089E004F0E0D3940540F190208246
:100EAA007407F0E4902089F0121246902089E00439
:100EBA00F0E0D3940540F1902082740FF0E4902082
:100ECA0089F0121246902089E004F0E0D39405409C
:100EDA00F1902082741FF0E4902089F0121246905B
:100EEA002089E004F0E0D3940540F1902082743F19
:100EFA00F0E4902089F0121246902089E004F0E094
:100F0A00D3940540F1902082747FF0E4902089F018
:100F1A00121246902089E004F0E0D3940540F19043
:100F2A00208274FFF0E4902089F012124690208902
:100F3A00E004F0E0D3940540F19020837401F0E4DA
:100F4A00902089F0121246902089E004F0E0D394B0
:100F5A000540F19020837403F0E4902089F0121286
:100F6A0046902089E004F0E0D3940540F190208374
:100F7A007407F0E4902089F0121246902089E00468
:100F8A00F0E0D3940540F1902083740FF0E49020B0
:100F9A0089F0121246902089E004F0E0D3940540CB
:100FAA00F1902083741FF0E4902089F01212469089
:100FBA002089E004F0E0D3940540F1902083743F47
:100FCA00F0E4902089F0121246902089E004F0E0C3
:100FDA00D3940540F1902083747FF0E4902089F047
:100FEA00121246902089E004F0E0D3940540F19073
:100FFA00208374FFF0E4902089F012124690208931
:10100A00E004F0E0D3940540F1E4902089F09020C8
:10101A0089E0D394F474809481500B121246902084
:10102A0089E004F080E89013E1E07004A3E0640131
:10103A006003021234020E4D121C6D12193A121C70
:10104A0074121C30E4902082F0A3F0902089F012F0
:10105A001246902089E004F0E0D3940540F19020F4
:10106A00837480F0E4902089F0121246902089E07F
:10107A0004F0E0D3940540F190208374C0F0E4902A
:10108A002089F0121246902089E004F0E0D39405FA
:10109A0040F190208374E0F0E4902089F012124627
:1010AA00902089E004F0E0D3940540F19020837405
:1010BA00F0F0E4902089F0121246902089E004F0C2
:1010CA00E0D3940540F190208374F8F0E4902089ED
:1010DA00F0121246902089E004F0E0D3940540F122
:1010EA0090208374FCF0E4902089F012124690203C
:1010FA0089E004F0E0D3940540F190208374FEF077
:10110A00E4902089F0121246902089E004F0E0D39E
:10111A00940540F190208374FFF0E4902089F01246
:10112A001246902089E004F0E0D3940540F1902023
:10113A00827480F0E4902089F0121246902089E0AF
:10114A0004F0E0D3940540F190208274C0F0E4905A
:10115A002089F0121246902089E004F0E0D3940529
:10116A0040F190208274E0F0E4902089F012124657
:10117A00902089E004F0E0D3940540F19020827435
:10118A00F0F0E4902089F0121246902089E004F0F1
:10119A00E0D3940540F190208274F8F0E49020891D
:1011AA00F0121246902089E004F0E0D3940540F151
:1011BA0090208274FCF0E4902089F012124690206C
:1011CA0089E004F0E0D3940540F190208274FEF0A7
:1011DA00E4902089F0121246902089E004F0E0D3CE
:1011EA00940540F190208274FFF0E4902089F01277
:1011FA001246902089E004F0E0D3940540F1E4908F
:10120A002089F0902089E0D394F474809481500B63
:10121A00121246902089E004F080E89013E1E07011
:10122A0004A3E0640170030210429006E2E004F0B5
:0B123A0070069006E1E004F0020D8158
:011245002286
:10174C00E49006E175F001121B05FC740025F0F520
:10175C008274003CF583E0B4301D9006E1E475F032
:10176C0001121B05FC740025F0F58274003CF58316
:10177C00E0B430030218239006E1E475F001121B6B
:10178C0005FC740025F0F58274003CF583E0B43060
:10179C001C9006E1E475F001121B05FC740025F0A9
:1017AC00F58274003CF583E0B43102806A9006E166
:1017BC00E475F001121B05FC740025F0F582740031
:1017CC003CF583E0B4301C9006E1E475F001121B8B
:1017DC0005FC740025F0F58274003CF583E0B4320E
:1017EC000280349006E1E475F001121B05FC7400D4
:1017FC0025F0F58274003CF583E0B4301A9006E1D4
:10180C00E475F001121B05FC740025F0F5827400E0
:09181C003CF583E0B433007F00C9
:0118250022A0
:10193A00902084E4F0A3743CF09013E1E4F0A374E3
:02194A0078F033
:10194C00E490208AF0A3F0A3F09006E1F0A3F090CD
:10195C0006E1E0FEA3E02400F58274003EF583E08E
:10196C00FF645E604B300148C2001216439013E1D5
:10197C00E0FEA3E0FF902084E0FCA3E0FDD39FEC0D
:10198C009E401D9013E1E4F0A304F09013E0E0FFFF
:10199C00ED9FFEEC9400902084F0A3CEF0121C740A
:1019AC009006E2E004F070A79006E1E004F0809F5E
:0119BC002208
:101C3000902085E024C4FF902084E034FFFED3EFA1
:101C4000943CEE9400501CC3743C9FFFE49EC3136D
:101C5000FEEF13FFC3743C9F902081F0E49E902020
:0C1C600080F022902080E4F0A3743CF09F
:011C6C002255
:0516430090208DEFF086
:10164800A37401F0EFC39420500302174B90208D30
:10165800E0D3947D400302174BE024E0F0E075F0FE
:1016680023A424E3F582E5F03406F583E09013E043
:10167800F0E4F99013E0E0FFE9C39F507890208EE2
:10168800E0FF90208DE075F023A424E3F582E5F0D7
:101698003406F583E5822FF582E43583F583E0FF90
:1016A800E9FD902085E02DFD902084E03400FC7455
:1016B800E42DF58274133CF583EFF090208EE0FF63
:1016C80090208DE075F023A424E4F582E5F034063B
:1016D800F583E5822FF582E43583F583E0FF7424F2
:1016E8002DF582741A3CF583EFF090208EE02402E9
:1016F800F00902167B9013E0E0FF902085E02FF0C0
:10170800902084E03400F0E4F9E9FF902085E02F90
:10171800FF902084E03400FE74E42FF58274133EB9
:10172800F583E4F074242FF582741A3EF583E4F00F
:1017380009E9B402D4902085E02402F0902084E0E6
:031748003400F07A
:01174B00227B
:071C6D00E4902084F0A3F0D5
:101C7400E4FFFE902085E02FFD902084E03EFC747C
:101C8400E42DF58274133CF583E4F074242DF5827D
:101C9400741A3CF583E4F00FBF00010EEF643C4E70
:021CA40070D1FD
:011CA600221B
:1013B800E490207FF0200103021507E4FF90207FCE
:1013C800E0908000F0FD902081E02DFD902080E0ED
:1013D8003400FC74E42DF58274133CF583E09080AE
:1013E80001F074242DF582741A3CF583E090800294
:1013F800F090207FE0FEFD902081E02DFD90208080
:10140800E03400FC74ED2DF58274133CF583E09014
:101418008003F0742D2DF582741A3CF583E09080DA
:1014280004F0908010EEF0FD902081E02DFD9020DA
:1014380080E03400FC74F62DF58274133CF583E0EB
:10144800908011F074362DF582741A3CF583E09083
:101458008012F0EEFD902081E02DFD902080E03498
:1014680000FC74FF2DF58274133CF583E090801323
:10147800F0743F2DF582741A3CF583E0908014F0E7
:1014880090207FE0908020F0FD902081E02DFD905D
:101498002080E03400FC74082DF58274143CF58338
:1014A800E0908021F074482DF582741A3CF583E0B1
:1014B800908022F090207FE0FD902081E02DFD902B
:1014C8002080E03400FC74112DF58274143CF583FF
:1014D800E0908023F074512DF582741A3CF583E076
:1014E800908024F00FEF640760030213C51219BD42
:0F14F80090207FE004F0E0D3940950030213BD6D
:0115070022C1
:10150800E490207FF020010302164290207FE0FF44
:10151800908000F07E00902081E02FFD902080E0F8
:101528003EFC74E42DF58274133CF583E090800151
:10153800F074242DF582741A3CF583E0908002F053
:10154800902081E02FFF902080E03EFE74EE2FF582
:101558008274133EF583E0908003F0742E2FF58299
:10156800741A3EF583E0908004F090207FE0FF90AD
:101578008010F07E00902081E02FFD902080E03EDA
:10158800FC74F82DF58274133CF583E0908011F01B
:1015980074382DF582741A3CF583E0908012F0902F
:1015A8002081E02FFF902080E03EFE74022FF5821C
:1015B80074143EF583E0908013F074422FF5827422
:1015C8001A3EF583E0908014F090207FE0FF908031
:1015D80020F07E00902081E02FFD902080E03EFCEE
:1015E800740C2DF58274143CF583E0908021F0741E
:1015F8004C2DF582741A3CF583E0908022F09020FF
:1016080081E02FFF902080E03EFE74162FF5827453
:10161800143EF583E0908023F074562FF582741AF7
:101628003EF583E0908024F01219BD90207FE004FD
:0B163800F0E0D39409500302150D22CE
:10124600E490207FF02001030213B790207FE09006
:101256008000F0FB7A00902080E0FEA3E02BFDEA00
:101266003EFC74E42DF58274133CF583E0FF902078
:1012760082E0F9EF59908001F074242DF582741AFA
:101286003CF583E0FF902083E0FEEF5E908002F065
:10129600902080E0FEA3E02BFDEA3EFC74EE2DF5E7
:1012A6008274133CF583E059908003F0742E2DF57B
:1012B60082741A3CF583E0FF902083E0FEEF5E9097
:1012C6008004F090207FE0908010F0902080E0FE77
:1012D600A3E02BFDEA3EFC74F82DF58274133CF571
:1012E60083E059908011F074382DF582741A3CF51C
:1012F60083E0FF902083E0FEEF5E908012F0902066
:1013060080E0FEA3E02BFDEA3EFC74022DF582741C
:10131600143CF583E059908013F074422DF58274E5
:101326001A3CF583E0FF902083E0FEEF5E90801488
:10133600F090207FE0908020F0902080E0FEA3E0F7
:101346002BFDEA3EFC740C2DF58274143CF583E00B
:1013560059908021F0744C2DF582741A3CF583E087
:10136600FF902083E0FEEF5E908022F0902080E0E8
:10137600FEA3E02BFDEA3EFC74162DF58274143CA8
:10138600F583E059908023F074562DF582741A3C4B
:10139600F583E0FF902083E0FEEF5E908024F0125C
:1013A6001A1C90207FE004F0E0D394095003021247
:0213B6004B22C8
:1019BD00E4FD9013E3F02DFBE433FA74E32BF58291
:1019CD0074133AF583E0908001F0A3F0A3F0A3F037
:1019DD00E49013E3F02DFBE433FA74E32BF58274FA
:1019ED00133AF583E0908011F0A3F0A3F0A3F0E497
:1019FD009013E3F02DFBE433FA74E32BF5827413AB
:0E1A0D003AF583E0908021F0A3F0A3F0A3F05F
:011A1B0022A8
:101A1C00E4FFFD9013E3F02DFBE433FA74E32BF5B4
:101A2C008274133AF583EF908001F0A3F0A3F0A336
:101A3C00F09013E3F02DFBE433FA74E32BF582748E
:101A4C00133AF583EF908011F0A3F0A3F0A3F0907C
:101A5C0013E3F02DFBE433FA74E32BF58274133AA1
:0D1A6C00F583EF908021F0A3F0A3F0A3F02C
:011A7900224A
:101D1700E4FDFCD3ED9FEC9E50070DBD00010C8048
:011D2700F2C9
:011D28002298
:101CA7007598504387805389CF438920758DFAE40F
:101CB700F58BD28ED2AC53A8907BFF7A00790302C2
:021CC7001B34CC
:101CEA00E4F589F5A8C28CC28D43890143A882759F
:081CFA008CF8758ACDD28C2212
:0B1A7A0090208FEBF0A3EAF0A3E9F04E
:101A8500121D02902094EEF0A3EFF0E4902092F066
:101A9500A3F0902094E0FEA3E0FF902092E0FCA349
:101AA500E0FDC39FEC9E502A90208FE0FBA3E0FA57
:101AB500A3E0F98D828C83121AD8FF902064F0126E
:101AC5001D29902093E004F070C8902092E004F066
:021AD50080C0CF
:011AD70022EC
:081D29008F993099FDC2992247
:0B1B3400902089EBF0A3EAF0A3E9F099
:101B3F00E490208EF0121D0290208CEEF0A3EFF0B7
:101B4F00E4FDFCD390208DE09D90208CE09C402103
:101B5F00902089E0FBA3E0FAA3E0F98D828C831239
:101B6F001AD8FF90208EF0121D290DBD00010C8098
:0B1B7F00D27F0D121D297F0A021D29D4
:03002300021BDEDF
:0F1BDE00C0E0C083C082C0D075D000C006C00771
:101BED00902087E4F0A3F0C20130981FAF999020A8
:101BFD0086E0FE04F074402EF582E43406F583EFA2
:101C0D00F0B45E05D200759901C298902086E0D39C
:061C1D0094A04002E4F077
:0D1C2300D007D006D0D0D082D083D0E032E0
:101B8A00E4FF900640E0647E7049902086E0243F9E
:101B9A00F582E43406F583E0645E70377BFF7A00F1
:101BAA007916121B34E4FF902086E0FEEFC39E50A4
:101BBA001B74402FF582E43406F583E0FE74002F8F
:101BCA00F582E43400F583EEF00F80DBE4902086A2
:031BDA00F0D20145
:011BDD0022E5
:03000000021826BD
:0C182600787FE4F6D8FD75812002186D73
:101AD800BB010CE58229F582E5833AF583E02250C3
:101AE80006E92582F8E622BBFE06E92582F8E2220D
:0D1AF800E58229F582E5833AF583E4932227
:101B0500A3F8E0C5F025F0F0E58215827002158393
:061B1500E0C838F0E822F0
:101D0200E4FFFE121B1B600C0FEF70010E09E9705D
:051D1200F20A80EF223F
:10183200021CC9E493A3F8E493A34003F68001F2E7
:1018420008DFF48029E493A3F85407240CC8C333B7
:10185200C4540F4420C8834004F456800146F6DF86
:10186200E4800B0102040810204080900026E47EF0
:10187200019360BCA3FF543F30E509541FFEE4937B
:10188200A360010ECF54C025E060A840B8E493A342
:10189200FAE493A3F8E493A3C8C582C8CAC583CA6D
:1018A200F0A3C8C582C8CAC583CADFE9DEE780BE25
:010D79000079
:101B1B00BB010689828A83E0225002E722BBFE02C8
:091B2B00E32289828A83E49322FB
:00000001FF
